:020000040800F2
:100000000080012061530108A55A0008AD5A00087C
:10001000B55A0008BD5A0008C55A00080000000083
:10002000000000000000000000000000810901083D
:10003000CD5A000800000000C10B0108290C01087E
:10004000B1530108B1530108B1530108B15301087C
:10005000B1530108B1530108B1530108B15301086C
:10006000B1530108B1530108B1530108B15301085C
:100070008DE00008B1530108B1530108B1530108E4
:10008000B1530108B1530108B1530108B15301083C
:10009000B1530108B1530108B1530108B15301082C
:1000A000B1530108B1530108B1530108B15301081C
:1000B000EDDC0008B1530108B1530108B153010848
:1000C000B1530108B1530108B1530108B1530108FC
:1000D000B1530108B1530108B1530108B1530108EC
:1000E000B1530108B1530108B1530108B1530108DC
:1000F000B1530108B1530108B1530108B1530108CC
:10010000B1530108B1530108B1530108B1530108BB
:10011000B1530108B1530108B1530108B1530108AB
:10012000B1530108B153010839D8000895D8000827
:10013000B1530108B1530108B1530108B15301088B
:10014000B1530108B1530108B1530108B532010898
:10015000B1530108B1530108B1530108B15301086B
:10016000B1530108B1530108B1530108B15301085B
:10017000B1530108B1530108B15301080000000058
:08018000B1530108B15301085D
:1001900010B5054C237833B9044B13B10448AFF3C1
:1001A00000800123237010BD5809002000000000CA
:1001B0002454010808B5034B1BB103490348AFF3AE
:1001C000008008BD000000005C09002024540108E4
:1001D00010F8012B11F8013B012A28BF9A42F7D0F1
:1001E000D01A7047034613F8012B002AFBD1181AC6
:1001F000013870477BB972B90029BEBF00204FF0AB
:10020000004106E008BF00281CBF6FF000414FF01E
:10021000FF3000F0A5B9ADF1080C6DE904CE00295E
:1002200009DB002B1ADB00F035F8DDF804E0DDE92E
:10023000022304B07047404261EB4101002B1BDBFD
:1002400000F028F8DDF804E0DDE9022304B04042C4
:1002500061EB4101524263EB43037047524263EB4F
:10026000430300F017F8DDF804E0DDE9022304B0F1
:10027000404261EB41017047524263EB430300F09F
:1002800009F8DDF804E0DDE9022304B0524263EB33
:10029000430370472DE9F047089E04468846002B2B
:1002A0004BD18A42154667D9B2FA82F24AB1C2F1FD
:1002B000200701FA02F320FA07F7954047EA0308FE
:1002C00094404FEA154E230CB8FBFEF71FFA85FC4D
:1002D0000EFB178843EA084307FB0CF1994209D942
:1002E000EB1807F1FF3080F01B81994240F2188132
:1002F000023F2B445B1AA4B2B3FBFEF00EFB10339B
:1003000044EA034400FB0CFCA44509D92C1900F174
:10031000FF3380F00781A44540F2048102382C4469
:1003200040EA0740A4EB0C0400271EB1D440002390
:10033000C6E900433946BDE8F0878B4209D9002E53
:1003400000F0EB800027C6E9000138463946BDE8D9
:10035000F087B3FA83F7002F47D18B4202D3824252
:1003600000F2FA80841A61EB030301209846002E04
:10037000E0D0C6E90048DDE702B9FFDEB2FA82F25A
:10038000002A40F08F80491B4FEA154E1FFA85F86E
:100390000127B1FBFEFC230C0EFB1C1143EA0143B9
:1003A00008FB0CF1994207D9EB180CF1FF3002D28F
:1003B000994200F2CD808446591AA3B2B1FBFEF0F7
:1003C0000EFB101443EA044408FB00F8A04507D9CB
:1003D0002C1900F1FF3302D2A04500F2B680184676
:1003E000A4EB080440EA0C409FE7C7F1200CBB4097
:1003F00022FA0CFE4EEA030E01FA07F420FA0CF57D
:1004000021FA0CF34FEA1E482543B3FBF8F92C0CF4
:1004100008FB19331FFA8EFA44EA034309FB0AF476
:100420009C4202FA07F200FA07F10BD91EEB030314
:1004300009F1FF3080F087809C4240F28480A9F16E
:10044000020973441B1BADB2B3FBF8F008FB103379
:1004500045EA034400FB0AFAA24508D91EEB04044E
:1004600000F1FF336BD2A24569D90238744440EAE7
:100470000940A0FB0289A4EB0A044C45C2464B4646
:1004800054D351D0002E69D0B1EB0A0564EB0304BC
:1004900004FA0CFCFD40FC404CEA0505C6E900549A
:1004A000002747E7C2F1200320FA03F7954001FA3D
:1004B00002F021FA03F34FEA154E3843010CB3FB67
:1004C000FEF71FFA85F80EFB173341EA034107FBDD
:1004D00008F38B4204FA02F407D9691807F1FF3CCC
:1004E0002FD28B422DD9023F2944CB1A81B2B3FBC4
:1004F000FEF00EFB103341EA034100FB08F38B4290
:1005000007D9691800F1FF3C17D28B4215D9023880
:100510002944C91A40EA07473BE73746304609E70E
:100520000746E7E61846FBE64145ABD2B8EB020AC0
:1005300069EB0E0201381346A4E76046E9E7184666
:1005400095E76746D1E781467CE702382C4447E7C8
:10055000ACF1020C2B442FE7384608E73746E9E6B2
:10056000704700BF80B586B000AF3B1D00221A6007
:100570005A609A60DA601A6140F28F337B60002320
:10058000BB600123FB603B1D19460A4807F046FC8F
:10059000002109480DF0FCFF0246084B1A600021BB
:1005A00007480DF0F5FF0246064B1A6000BF1837EA
:1005B000BD4680BD00080048785E01087CBC002074
:1005C000885E010880BC002080B400AF034B1B682C
:1005D0001846BD465DF8047B704700BF7CBC002018
:1005E00080B400AF034B1B681846BD465DF8047B22
:1005F000704700BF80BC002080B58AB000AF0346C2
:10060000FB800E4BFB600E4B3B61FB88BB820023E3
:10061000BB614FF40073FB6100233B6200237B62EC
:1006200007F10C03002118460DF08FFE0246054B22
:100630001A6000BF2837BD4680BD00BF3C5401088A
:100640004906000884BC002080B5A6B000AF7860E1
:1006500007F1840008232D4A322100F05BF807F1EE
:1006600070000423294A322100F054F807F15C009D
:100670000223264A322100F04DF807F148000123F9
:10068000224A322100F046F807F120004FF480732F
:100690001E4A012100F03EF807F10C0080231B4A9E
:1006A000012100F037F807F134004FF40073174AC6
:1006B000012100F02FF807F184030021184600F013
:1006C000DFF807F170030121184600F0D9F807F1AF
:1006D0005C030221184600F0D3F807F14803032118
:1006E000184600F0CDF807F1340207F10C0107F1CC
:1006F0002003184600F0FAF8054B1B680133044A42
:10070000136002200DF079FED5E700BF0008004815
:10071000E82F002080B485B000AFF860B9607A603F
:100720007B80FB6802221A70FB6800225A60FB681B
:10073000BA689A60FB687A68DA60FB687A881A821D
:1007400000BF1437BD465DF8047B704780B584B0A8
:1007500000AF78607B68DA687B681B8A19461046B0
:1007600007F004FD0346012B0CBF01230023FB739C
:100770007B681B78052B74D801A252F823F000BFC8
:10078000AD070008DF070008FB0700081508000890
:100790004708000899070008FB7B002B02D07B6804
:1007A00000221A707B6801225A7064E0FB7B002BE8
:1007B0000ED07B6801221A7005F0C2FD02467B68EC
:1007C0009B681A447B685A607B6802225A7052E028
:1007D0007B6805221A707B6801225A704BE005F095
:1007E000AFFD02467B685B689A4202D97B680222B1
:1007F0001A707B6803225A703DE0FB7B83F0010393
:10080000DBB2002B02D07B6803221A707B680322C4
:100810005A7030E0FB7B002B06D07B6802221A70F6
:100820007B6803225A7026E07B6804221A7005F068
:1008300087FD02467B689B681A447B685A607B6828
:1008400000225A7017E005F07BFD02467B685B686A
:100850009A4202D97B6805221A707B6801225A707D
:1008600009E07B6802221A707B6800225A607B686C
:1008700003225A7000BF00BF1037BD4680BD00BFC5
:1008800080B584B000AF78600B46FB7000237B73AB
:100890007868FFF75BFF7B685B78002B04D1FB78FF
:1008A0003B7301237B7307E07B685B78022B03D1EA
:1008B000FB783B7302237B737B7B002B0FD00A4BAF
:1008C0001B6818460DF058FF0346002B07D0064B57
:1008D0001B68F9684FF0FF3218460DF083FE00BF29
:1008E0001037BD4680BD00BF7CBC002080B586B0FF
:1008F00000AFF860B9607A6000233B75F868FFF7D5
:1009000025FFB868FFF722FF7868FFF71FFF7B68B5
:100910005B78002B02D101233B7505E07B685B7897
:10092000022B01D102233B75FB685B78002B08D1B9
:10093000BB685B78032B02D103233B7501E00423E2
:100940003B753B7D002B0FD0094B1B6818460DF003
:1009500013FF0346002B07D0054B1B6879694FF046
:10096000FF3218460DF03EFE00BF1837BD4680BD71
:1009700080BC002080B500AF0A4B00221A70094BE2
:1009800000225A70074B0022C3F80421054B0022B5
:10099000C3F80821034B00229A7012F05BFC00BFE1
:1009A00080BD00BF7809002080B58AB000AF034643
:1009B000FB800E4BFB600E4B3B61FB88BB82002330
:1009C000BB614FF40073FB6100233B6200237B6239
:1009D00007F10C03074918460DF0B7FC0246064B19
:1009E0001A6000BF2837BD4680BD00BF48540108CB
:1009F000FD090008780900207409002080B584B042
:100A000000AF78607B68BB60BB689B7803F0020333
:100A1000002B05D0B86800F095F8B86800F054F8DD
:100A2000BB689B7803F00403002B0BD0B86800F080
:100A300089F8B86800F00AFBB86800F03BFBB868BA
:100A400000F042F8BB689B7803F01003002B33D012
:100A500004221B49B86800F065F80D21B86800F061
:100A600052F83E21B86800F04EF82021B86800F036
:100A70004AF8BB68D91CBB68D3F804311A46B86879
:100A800000F050F8BB68D3F80431FB6007E00322A4
:100A90000C49B86800F046F8FB68013BFB60BB6896
:100AA000D3F80831FA689A42F1D8BB689B7823F0F2
:100AB0001003DAB2BB689A700A200DF09EFCA3E71F
:100AC000545401085C54010880B582B000AF7860CE
:100AD0007B6800229A707B680022C3F804217B683F
:100AE0000022C3F808210D21786800F00CF83E219F
:100AF000786800F008F82021786800F004F800BF5A
:100B00000837BD4680BD80B582B000AF78600B4627
:100B1000FB70FB1C0121184612F0CEFD00BF083708
:100B2000BD4680BD80B584B000AFF860B9607A6022
:100B30007B689BB21946B86812F0BEFD00BF103743
:100B4000BD4680BD80B582B000AF78600422044904
:100B50007868FFF7E7FF00BF0837BD4680BD00BFDC
:100B6000605401080000000090B587B000AF7860C5
:100B7000396039686E4BA3FB0123DA0813469B00EA
:100B800013445B00CA1AD3B23033DBB27B743A68C9
:100B9000684BA3FB02135B09642101FB03F3D31A27
:100BA000634AA2FB0323DB08DBB23033DBB23B74C6
:100BB0003A68614BA3FB02139B094FF47A7101FB66
:100BC00003F3D31A5B4AA2FB03235B09DBB2303386
:100BD000DBB2FB733A68594BA3FB02135B0B42F287
:100BE000107101FB03F3D31A534AA2FB03239B09A1
:100BF000DBB23033DBB2BB733A6853095049A1FB17
:100C00000313DB094F4901FB03F3D31A4B4AA2FB41
:100C100003235B0BDBB23033DBB27B733A684A4BA6
:100C2000A3FB02139B0C494901FB03F3D31A5B0995
:100C3000434AA2FB0323DB09DBB23033DBB23B7355
:100C40003A68434BA3FB02139B0D424901FB03F39C
:100C5000D31A3D4AA2FB03239B0CDBB23033DBB239
:100C6000FB723A683C4BA3FB02135B0E3B4901FB52
:100C700003F3D31A364AA2FB03239B0DDBB23033B6
:100C8000DBB2BB723A68530A3549A1FB0313DB0997
:100C9000344901FB03F3D31A2F4AA2FB03235B0E53
:100CA000DBB23033DBB27B723B6818464FF0000199
:100CB0001BA3D3E90023FFF79DFA1C4613461846F1
:100CC000214619A3D3E90023FFF794FA03460C4603
:100CD000DBB23033DBB23B7200237B6112E007F101
:100CE00008027B6913441B78302B08D007F10802F7
:100CF0007B6913441B7819467868FFF704FF7B690A
:100D000001337B617B69082BE9D97B7C19467868C4
:100D1000FFF7F9FE00BF1C37BD4690BDAFF3008062
:100D200000E40B540200000000CA9A3B00000000DF
:100D3000CDCCCCCC1F85EB51D34D62105917B7D118
:100D4000C55A7C0AA086010083DE1B4340420F0087
:100D50006BCA5F6B80969800893BE65500E1F5050C
:100D6000834B040000CA9A3B80B584B000AF786022
:100D70000123FB737B6800229A707B680022C3F812
:100D800004217B680022C3F808217B689B7803F06C
:100D90000203002B02D00323FB730CE07B689B78DB
:100DA00003F00403002B02D00023FB7303E00A20AE
:100DB0000DF023FBE9E7FB7B18461037BD4680BDED
:100DC00080B588B000AFF860B9607A600123FB7726
:100DD000FB6800229A70FB680022C3F80421FB68BC
:100DE0000022C3F80821FB689B7803F00203002B64
:100DF00002D00323FB776CE0FB689B7803F00403CD
:100E0000002B34D0F868FFF79DFEF86800F01EF95B
:100E1000FB68D3F80431002B02D10123FB7758E0A3
:100E2000FB68D3F804217B681B689A4202D902232D
:100E3000FB774EE00023BB610BE0BA68BB6913444B
:100E4000F968BA690A44033212781A70BB6901332F
:100E5000BB61FB68D3F80431BA699A42EDD3FB68F1
:100E6000D3F804217B681A600023FB7731E0FB682C
:100E70009B7803F01003002B27D0FB689B7823F0AE
:100E80001003DAB2FB689A7007221E49F868FFF770
:100E900049FEFB68D91CFB68D3F804311A46F86890
:100EA000FFF740FEFB68D3F804317B6107E00322C3
:100EB0001549F868FFF736FE7B69013B7B61FB68EB
:100EC000D3F808317A699A42F1D80A200DF095FAE0
:100ED00089E7FB7F002B0BDB012B0DDD022B07D1FC
:100EE0001A220A49F868FFF71DFEF868FFF72AFE84
:100EF000F86800F087F800E000BFFB7F1846203755
:100F0000BD4680BD685401085C5401087054010856
:100F100080B588B000AF786039600123FB750A2383
:100F2000BB60354BFB6107F1080207F10C03194662
:100F30007868FFF745FF0346FB75FB7D002B56D114
:100F40000023BB611DE007F10C02BB6913441B7851
:100F50002F2B06D907F10C02BB6913441B78392BE0
:100F60000CD91C2225497868FFF7DCFD7868FFF76B
:100F7000E9FD786800F046F8042339E0BB690133E5
:100F8000BB61BB68BA699A42DDD30A23BB6108E042
:100F9000FB691B4AA2FB0323DB08FB61BB69013B26
:100FA000BB61BB68BA699A42F2D83B6800221A60FA
:100FB0000023BB6117E03B681A6807F10C01BB69AD
:100FC0000B441B78303B1946FB6903FB01F31A44C1
:100FD0003B681A60FB690A4AA2FB0323DB08FB613A
:100FE000BB690133BB61BB68BA699A42E3D3FB7D3D
:100FF00018462037BD4680BD00CA9A3B8C54010874
:10100000CDCCCCCC80B582B000AF7860062205494B
:101010007868FFF787FD7868FFF794FD00BF083711
:10102000BD4680BDAC54010880B582B000AF786089
:10103000082205497868FFF775FD7868FFF782FD9B
:1010400000BF0837BD4680BDB454010880B483B0EA
:1010500000AF786006E07B68D3F804315A1E7B68E5
:10106000C3F804217B68D3F80431013B7A68134448
:10107000DB78202B04D17B68D3F80431002BEAD134
:1010800000BF0C37BD465DF8047B704780B400AFED
:10109000BFF34F8F054BDB6803F4E0620349044B59
:1010A0001343CB60BFF34F8F00BFFDE700ED00E0BF
:1010B0000400FA0580B584B000AF78600023FB60BF
:1010C0007B68D3F80431002B36D07B68D3F8043129
:1010D0007A6813440022DA701BE07B68D81CFB6836
:1010E000582202FB03F3164A13441946FFF770F81F
:1010F0000346002B0AD1124AFB68582101FB03F377
:10110000134454331B687868984716E0FB68013332
:10111000FB600B4AFB68582101FB03F31344543373
:101120001B68002BD9D13B2206497868FFF7FAFCEF
:101130007868FFF707FD00E000BF1037BD4680BDAF
:1011400000000020C054010880B582B000AF786074
:101150002B2205497868FFF7E5FC7868FFF7F2FC79
:1011600000BF0837BD4680BDFC54010880B586B07D
:1011700000AF786002F03EF8F86002F031F8B86035
:1011800000237B61182234497868FFF7CBFC78682C
:10119000FFF7D8FC00233B614FE0FB685B6801214F
:1011A0003A6901FA02F21340002B43D03B69092B44
:1011B00005D8042229497868FFF7B4FC04E003222B
:1011C00027497868FFF7AEFC39697868FFF7CCFCEF
:1011D000022224497868FFF7A5FC3A6913461B01EF
:1011E0009B1A5B001A46BB68134401331846FEF78E
:1011F000F9FF78613A6913461B019B1A5B001A4696
:10120000BB68134401337A6919467868FFF78AFC92
:1012100006E020217868FFF776FC7B6901337B616B
:101220007B690F2BF5D923217868FFF76CFC786870
:10123000FFF788FC3B6901333B613B691F2BACD94D
:10124000182205497868FFF76DFC7868FFF77AFC8B
:1012500000BF1837BD4680BD285501084455010818
:101260004C5501085055010880B582B000AF786038
:10127000042206497868FFF755FC0422044978687F
:10128000FFF750FC00BF0837BD4680BD545501082C
:101290005C55010880B586B000AF786000237B61A3
:1012A00000233B610FE0394A7B69582101FB03F3BE
:1012B000134410331B683A69934238BF13463B61AD
:1012C0007B6901337B61314A7B69582101FB03F360
:1012D000134454331B68002BE5D100237B6147E0A6
:1012E0007B69582202FB03F3284A9818274A7B6936
:1012F000582101FB03F3134410331B681A460146BF
:101300007868FFF70FFC214A7B69582101FB03F342
:10131000134410331B68FB6006E020217868FFF758
:10132000F2FBFB680133FB60FA683B699A42F4D92F
:10133000032217497868FFF7F5FB7B69582202FB07
:1013400003F31033114A1344181D104A7B695821C6
:1013500001FB03F3134450331B681A4601467868B7
:10136000FFF7E0FB7868FFF7EDFB7B6901337B61FA
:10137000064A7B69582101FB03F3134454331B686D
:10138000002BADD100BF1837BD4680BD0000002046
:101390006455010880B588B000AF78600F23FB600A
:1013A000272236497868FFF7BDFB7868FFF7CAFB4C
:1013B00007F10C0207F1100319467868FFF700FDEA
:1013C0000346FB77FB7F002B0ED0012B00D052E0B1
:1013D00017222B497868FFF7A5FB7868FFF7B2FB67
:1013E0007868FFF70FFE46E000BF2922254978689C
:1013F000FFF798FB02F07AF8034619467868FFF782
:10140000B3FB022220497868FFF78CFB7868FFF76E
:1014100099FB07F1080319467868FFF779FD034641
:10142000FB77FB7F002B07D0012B00D023E002F0DD
:101430005DF80346BB6000E000BFBB681F2B0ED801
:10144000BB68D9B2FB6807F11002002001F0BAFFB7
:101450000346002B03D17868FFF7E6FD0BE01D2261
:101460000A497868FFF75EFB7868FFF76BFB7868DE
:10147000FFF7C8FD00BF2037BD4680BD6855010895
:1014800090550108A8550108D4550108D855010800
:1014900080B584B000AF78607868FFF767FE3222CD
:1014A0001C497868FFF73EFB7868FFF74BFB07F1B4
:1014B000080319467868FFF72BFD0346FB73FB7B97
:1014C000002B08D0012B00D021E001F093FE034651
:1014D0001B7ABB6000E000BFBB681F2B0BD8BB684A
:1014E000DBB2184602F026F80346002B03D17868D9
:1014F000FFF79AFD0BE01D2207497868FFF712FB02
:101500007868FFF71FFB7868FFF77CFD00BF103796
:10151000BD4680BDF8550108D855010880B584B096
:1015200000AF78607868FFF721FE19221F497868BC
:10153000FFF7F8FA7868FFF705FB07F1080319468B
:101540007868FFF7E5FC0346FB73FB7B002B0ED0AE
:10155000012B00D027E0172215497868FFF7E2FA3F
:101560007868FFF7EFFA7868FFF74CFD1BE000BFE3
:10157000BB681F2B0BD8BB68DBB2184601F002FF1B
:101580000346002B03D17868FFF74EFD0BE01D22C8
:1015900008497868FFF7C6FA7868FFF7D3FA7868E1
:1015A000FFF730FD00BF1037BD4680BD2C56010847
:1015B00090550108D855010880B586B000AF786015
:1015C0007868FFF7D3FD202234497868FFF7AAFA3C
:1015D0007868FFF7B7FA07F1100319467868FFF744
:1015E00097FC0346FB75FB7D002B0ED0012B00D032
:1015F00050E017222A497868FFF794FA7868FFF7D5
:10160000A1FA7868FFF7FEFC44E000BF25222549D7
:101610007868FFF787FA7868FFF794FA07F10C0308
:1016200019467868FFF774FC0346FB75FB7D002BB9
:101630000ED0012B00D02DE0172219497868FFF752
:1016400071FA7868FFF77EFA7868FFF7DBFC21E033
:1016500000BF3B69022B11D8FB681F2B0ED83B69DA
:10166000DBB2FA68D2B21146184601F0DDFF03463C
:10167000002B03D17868FFF7D7FC0BE01D220A4945
:101680007868FFF74FFA7868FFF75CFA7868FFF739
:10169000B9FC00BF1837BD4680BD00BF48560108E1
:1016A000905501086C560108D855010880B586B0E0
:1016B00000AF78607868FFF759FD202234497868D8
:1016C000FFF730FA7868FFF73DFA07F11003194683
:1016D0007868FFF71DFC0346FB75FB7D002B0ED0E1
:1016E000012B00D050E017222A497868FFF71AFA38
:1016F0007868FFF727FA7868FFF784FC44E000BFBA
:10170000252225497868FFF70DFA7868FFF71AFA5D
:1017100007F10C0319467868FFF7FAFB0346FB75DF
:10172000FB7D002B0ED0012B00D02DE01722194994
:101730007868FFF7F7F97868FFF704FA7868FFF739
:1017400061FC21E000BF3B691F2B11D8FB681F2BF8
:101750000ED83B69DBB2FA68D2B21146184601F0E6
:10176000DFFF0346002B03D17868FFF75DFC0BE039
:101770001D220A497868FFF7D5F97868FFF7E2F982
:101780007868FFF73FFC00BF1837BD4680BD00BF3B
:1017900048560108905501086C560108D8550108B3
:1017A00080B588B000AF78600F23FB6027221A490C
:1017B0007868FFF7B7F97868FFF7C4F907F10C020A
:1017C00007F1100319467868FFF7FAFA0346FB772A
:1017D000FB7F002B0ED0012B00D01AE017220F49FF
:1017E0007868FFF79FF97868FFF7ACF97868FFF73A
:1017F00009FC0EE000BFFA6807F110031146184615
:1018000002F018F80346002B03D17868FFF70CFCB0
:1018100000BF2037BD4680BD6855010890550108BE
:10182000B0B598B002AF78624622B949786AFFF73E
:1018300079F9786AFFF786F9786AFFF795FA03462F
:10184000002B03D0786AFFF7DDFB30E307F13003AC
:10185000184603F00DF83B6BA7F856307B6BA7F8E2
:1018600054303D22AB49786AFFF75CF9786AFFF79C
:1018700069F9786AFFF778FA0346002B03D0786A93
:10188000FFF7C0FB13E33B46184602F0F1FF07F1F8
:1018900030043D460FCD0FC495E80F0084E80F00DB
:1018A0003B6B9BB2FB857B6B9BB2BB8547229A4906
:1018B000786AFFF737F9786AFFF744F9786AFFF733
:1018C00053FA0346002B03D0786AFFF79BFBEEE246
:1018D0003B46184602F0CCFF07F130043D460FCDE1
:1018E0000FC495E80F0084E80F003B6BA7F8523057
:1018F0007B6BA7F8503007F1290407F12E02B7F8E7
:101900005210B7F8560007F12A030093234600F05F
:10191000D3FAFB8D19467B8D1A4697F829300020A3
:1019200002F00AFA0346002B08D00D227B49786AA0
:10193000FFF7F8F8786AFFF705F9B8E207F129042C
:1019400007F12C02B7F85010B7F8540007F12A033A
:101950000093234600F0B0FABB8D19467B8D1A46E2
:1019600097F82930012002F0E7F90346002B08D050
:101970000D226A49786AFFF7D5F8786AFFF7E2F82E
:1019800095E247226649786AFFF7CCF8786AFFF754
:10199000D9F8786AFFF7E8F90346002B03D0786A94
:1019A000FFF730FB83E23B46184602F061FF07F188
:1019B00030043D460FCD0FC495E80F0084E80F00BA
:1019C000BB6BA7F85630FB6BA7F854303E22554945
:1019D000786AFFF7A7F8786AFFF7B4F8786AFFF734
:1019E000C3F90346002B03D0786AFFF70BFB5EE2D6
:1019F0003B46184602F03CFF07F130043D460FCD50
:101A00000FC495E80F0084E80F00BB6B9BB2FB8509
:101A1000FB6B9BB2BB8548224349786AFFF782F88B
:101A2000786AFFF78FF8786AFFF79EF90346002B74
:101A300003D0786AFFF7E6FA39E23B46184602F02F
:101A400017FF07F130043D460FCD0FC495E80F0096
:101A500084E80F00BB6BA7F85230FB6BA7F850303F
:101A600007F1290407F12E02B7F85210B7F8560013
:101A700007F12A030093234600F01EFAFB8D194656
:101A80007B8D1A4697F82930022002F055F903465B
:101A9000002B08D00D222149786AFFF743F8786AB5
:101AA000FFF750F803E207F1290407F12C02B7F819
:101AB0005010B7F8540007F12A030093234600F0B2
:101AC000FBF9BB8D19467B8D1A4697F82930032008
:101AD00002F032F90346002B08D00D220F49786A34
:101AE000FFF720F8786AFFF72DF8E0E143220F496D
:101AF000786AFFF717F8786AFFF724F8786AFFF733
:101B000033F90346002B13D0786AFFF77BFACEE156
:101B100094560108DC5601081C5701086457010857
:101B200074570108BC570108FC57010848580108C0
:101B30003B46184602F09CFE07F130043D460FCDAF
:101B40000FC495E80F0084E80F003B6CA7F85630EF
:101B50007B6CA7F854303A22B349786AFEF7E2FF6B
:101B6000786AFEF7EFFF786AFFF7FEF80346002B6E
:101B700003D0786AFFF746FA99E13B46184602F02F
:101B800077FE07F130043D460FCD0FC495E80F00F6
:101B900084E80F003B6C9BB2FB857B6C9BB2BB85E2
:101BA0004422A249786AFEF7BDFF786AFEF7CAFFB1
:101BB000786AFFF7D9F80346002B03D0786AFFF75D
:101BC00021FA74E13B46184602F052FE07F1300458
:101BD0003D460FCD0FC495E80F0084E80F003B6C25
:101BE000A7F852307B6CA7F8503007F1290407F1B1
:101BF0002E02B7F85210B7F8560007F12A030093E7
:101C0000234600F059F9FB8D19467B8D1A4697F84B
:101C10002930002002F016F80346002B08D00D22D0
:101C20008349786AFEF77EFF786AFEF78BFF3EE114
:101C300007F1290407F12C02B7F85010B7F8540047
:101C400007F12A030093234600F036F9BB8D1946AD
:101C50007B8D1A4697F82930012001F0F3FF0346E7
:101C6000002B08D00D227249786AFEF75BFF786A74
:101C7000FEF768FF1BE132226E49786AFEF752FFD9
:101C8000786AFEF75FFF786AFFF76EF80346002B6D
:101C900003D0786AFFF7B6F909E13B46184602F02F
:101CA000E7FD07F130043D460FCD0FC495E80F0066
:101CB00084E80F00BB6CA7F8523033225E49786A83
:101CC000FEF730FF786AFEF73DFF786AFFF74CF8C1
:101CD0000346002B03D0786AFFF794F9E7E03B4610
:101CE000184602F0C5FD07F130043D460FCD0FC484
:101CF00095E80F0084E80F00BB6CA7F85630B7F8E2
:101D00005220B7F856309A420AD9B7F85220B7F89D
:101D10005630D31ADA0F13445B109BB2FB8509E0EF
:101D2000B7F85620B7F85230D31ADA0F13445B10C5
:101D30009BB2FB8507F1290407F12E02B7F8521078
:101D4000B7F8560007F12A030093234600F0B4F8D1
:101D5000FB8D19467B8D1A4697F82930022001F039
:101D600071FF0346002B08D00D223149786AFEF737
:101D7000D9FE786AFEF7E6FE99E03A222F49786AA2
:101D8000FEF7D0FE786AFEF7DDFE786AFEF7ECFF1C
:101D90000346002B03D0786AFFF734F987E03B460F
:101DA000184602F065FD07F130043D460FCD0FC423
:101DB00095E80F0084E80F00FB6C9BB2FB8538228E
:101DC0001F49786AFEF7AEFE786AFEF7BBFE786AB6
:101DD000FEF7CAFF0346002B03D0786AFFF712F91B
:101DE00065E03B46184602F043FD07F130043D46EE
:101DF0000FCD0FC495E80F0084E80F00FB6CA7F827
:101E0000523038220F49786AFEF78CFE786AFEF766
:101E100099FE786AFEF7A8FF0346002B14D0786A73
:101E2000FFF7F0F843E000BF8C580108C8580108DC
:101E300064570108105901084459010878590108EC
:101E4000B4590108F05901083B46184602F010FD4C
:101E500007F130043D460FCD0FC495E80F0084E82C
:101E60000F00FB6CA7F8563007F1290407F12E028A
:101E7000B7F85210B7F8560007F12A03009323462B
:101E800000F01AF8FB8D19467B8D1A4697F8293019
:101E9000032001F0D7FE0346002B08D00D22054990
:101EA000786AFEF73FFE786AFEF74CFE00BF5837AF
:101EB000BD46B0BD6457010880B487B000AFBA60BA
:101EC0007B600346FB810B46BB81FA89BB899A4242
:101ED0008CBF01230023DAB27B681A707B681B7801
:101EE000002B12D0BB681A88BB89D31AFB82BB684F
:101EF0001B88FA89D31ABB82BB681B88C3F57F6332
:101F00000F339AB2BB681A8009E0BB681B88BA8994
:101F1000D31AFB82BB681A88FB89D31ABB82FA8A60
:101F2000BB8A934238BF13469AB23B6A1A8000BFFD
:101F30001C37BD465DF8047B7047000080B582B059
:101F400000AF78601A2209497868FEF7EBFD7868DF
:101F5000FEF7F8FD0D2206497868FEF7E3FD786884
:101F6000FEF7F0FD00BF0837BD4680BD2C5A0108C2
:101F7000485A010880B586B000AF786001233B6104
:101F8000312252497868FEF7CDFD7868FEF7DAFD18
:101F90000A224F497868FEF7C5FD7868FEF7D2FD42
:101FA00007F1100207F1150319467868FEF708FFDC
:101FB0000346BB75BB7D002B02D0012B3DD081E0D9
:101FC0007B7D773B032B17D801A252F823F000BF8B
:101FD000F31F0008E11F0008E71F0008ED1F0008BD
:101FE0000023FB7514E00123FB7511E00223FB7550
:101FF0000EE00323FB750BE0172236497868FEF7E5
:1020000091FD7868FEF79EFD7868FEF7FBFF59E0CA
:1020100000BF1C2230497868FEF784FD7868FEF71F
:1020200091FD07F10C0319467868FEF771FF03462E
:10203000BB75BB7D002B0FD00BE0172227497868BA
:10204000FEF770FD7868FEF77DFD7868FEF7DAFF31
:1020500038E0012B0FD035E0FB68FF2B17D9152294
:102060001F497868FEF75EFD7868FEF76BFD7868BB
:10207000FEF7C8FF26E0172218497868FEF752FDE0
:102080007868FEF75FFD7868FEF7BCFF1AE000BFD6
:10209000FB68DAB2FB7D1146184601F089FC034665
:1020A000002B03D17868FEF7BFFF0BE006220D4935
:1020B0007868FEF737FD7868FEF744FD7868FEF72C
:1020C000A1FF00BF1837BD4680BD00BF585A0108A8
:1020D0008C5A0108985A0108B05A01089055010815
:1020E000D05A0108E85A010880B584B000AF786082
:1020F0000123BB60332223497868FEF713FD78681B
:10210000FEF720FD07F1080207F10E031946786873
:10211000FEF756FE0346FB73FB7B002B02D0012B20
:1021200020D02BE0BB7B642B07D0742B09D0612B14
:102130000BD1786800F02CF813E0786800F036F9DD
:102140000FE0786800F012FA0BE015220E4978686B
:10215000FEF7E8FC7868FEF7F5FC7868FEF752FFBA
:102160000CE00BE0172209497868FEF7DBFC786881
:10217000FEF7E8FC7868FEF745FF00BF1037BD4664
:1021800080BD00BFF05A0108245B0108905501088A
:1021900080B586B000AF78600223FB602B227C49BB
:1021A0007868FEF7BFFC7868FEF7CCFC1A22794904
:1021B0007868FEF7B7FC7868FEF7C4FC07F10C02FC
:1021C00007F1100319467868FEF7FAFD03467B75A0
:1021D0007B7D002B0ED0012B00D0D6E017226E495C
:1021E0007868FEF79FFC7868FEF7ACFC7868FEF72D
:1021F00009FFCAE000BFFB68022B2AD13B7C722B8F
:1022000027D17B7C773B032B16D801A252F823F011
:102210003322000821220008272200082D2200086E
:102220000423FB7514E00523FB7511E00623FB7501
:102230000EE00723FB750BE0152258497868FEF77E
:1022400071FC7868FEF77EFC7868FEF7DBFE9CE0A8
:102250002BE0FB68012B27D13B7C773B032B17D866
:1022600001A252F823F000BF8B2200087922000857
:102270007F220008852200080023FB7515E001235A
:10228000FB7512E00223FB750FE00323FB750CE0E6
:10229000152242497868FEF745FC7868FEF752FC43
:1022A0007868FEF7AFFE70E000BF2C223C497868EA
:1022B000FEF738FC7868FEF745FC0A223949786851
:1022C000FEF730FC7868FEF73DFC0123FB6007F168
:1022D0000C0207F1100319467868FEF771FD0346FA
:1022E0007B757B7D002B0ED0012B00D04DE017229B
:1022F00029497868FEF716FC7868FEF723FC7868B1
:10230000FEF780FE41E000BF3B7C773B032B17D8F4
:1023100001A252F823F000BF3B2300082923000844
:102320002F230008352300080023BB7514E0012388
:10233000BB7511E00223BB750EE00323BB750BE0F8
:10234000152216497868FEF7EDFB7868FEF7FAFB70
:102350007868FEF757FE18E0BA7DFB7D11461846F7
:1023600001F0CCFA0346002B03D17868FEF75CFE3F
:102370000BE006220C497868FEF7D4FB7868FEF77C
:10238000E1FB7868FEF73EFE00BF1837BD4680BD12
:102390003C5B0108685B010890550108245B01085B
:1023A000845B01088C5A0108E85A010880B586B0A0
:1023B00000AF78600223BB602B2265497868FEF786
:1023C000B1FB7868FEF7BEFB0E2262497868FEF723
:1023D000A9FB7868FEF7B6FB07F1080207F10C03CA
:1023E00019467868FEF7ECFC0346BB75BB7D002BF5
:1023F0000ED0012B00D0A7E0172257497868FEF7CE
:1024000091FB7868FEF79EFB7868FEF7FBFD9BE08A
:1024100000BFBB68022B45D13B7B622B42D17B7B4B
:10242000302B3FD97B7B342B3CD87B7B313B032B40
:1024300016D801A252F823F0492400084F240008BE
:10244000552400085B2400080023FB7509E00123E4
:10245000FB7506E00223FB7503E00323FB7500E038
:1024600000BF00BF2C223D497868FEF75BFB78680F
:10247000FEF768FB17223A497868FEF753FB786845
:10248000FEF760FB0223BB6007F1080207F10C03B3
:1024900019467868FEF794FC0346BB75BB7D002B9C
:1024A0001BD00BE015222F497868FEF73BFB7868BC
:1024B000FEF748FB7868FEF7A5FD45E0012B00D04C
:1024C00042E0172224497868FEF72CFB7868FEF773
:1024D00039FB7868FEF796FD36E000BFBB68022B3B
:1024E00016D13B7B732B13D17B7B602B10D97B7B6D
:1024F0007A2B0DD87B7B613B3B613B69DAB2FB7D7C
:102500001146184601F0AEFA0346002B0CD00FE03E
:10251000152214497868FEF705FB7868FEF712FB70
:102520007868FEF76FFD0FE07868FEF77DFD0BE041
:1025300006220D497868FEF7F5FA7868FEF702FB87
:102540007868FEF75FFD00BF1837BD4680BD00BF4D
:102550003C5B0108B45B010890550108845B0108ED
:10256000C45B0108245B0108E85A010880B586B005
:1025700000AF78600223BB602B2231497868FEF7F8
:10258000D1FA7868FEF7DEFA17222E497868FEF74E
:10259000C9FA7868FEF7D6FA07F1080207F10C03CA
:1025A00019467868FEF70CFC0346FB75FB7D002B93
:1025B0000ED0012B00D040E0172223497868FEF7A7
:1025C000B1FA7868FEF7BEFA7868FEF71BFD34E0D2
:1025D00000BFBB68022B14D13B7B732B11D17B7BDB
:1025E000602B0ED97B7B7A2B0BD87B7B613B3B61CD
:1025F0003B69DBB2184601F0CFFA0346002B0CD042
:102600000FE0152211497868FEF78CFA7868FEF71A
:1026100099FA7868FEF7F6FC0FE07868FEF704FD9B
:102620000BE006220A497868FEF77CFA7868FEF724
:1026300089FA7868FEF7E6FC00BF1837BD4680BD12
:102640003C5B0108C45B010890550108245B01084C
:10265000E85A010880B584B000AF786000F0ACFDA6
:10266000B8600023FB73CDE028217868FEF74BFAB1
:10267000FB7B013319467868FEF776FA0222974908
:102680007868FEF74FFAFB7BBA6813445B7D072B33
:1026900042D801A252F823F0C5260008DD26000822
:1026A000F52600080D270008B9260008D1260008E5
:1026B000E926000801270008022289497868FEF708
:1026C00031FA51E0022287497868FEF72BFA4BE095
:1026D000022285497868FEF725FA45E002228349FF
:1026E0007868FEF71FFA3FE0022281497868FEF71A
:1026F00019FA39E002227F497868FEF713FA33E0CD
:1027000002227D497868FEF70DFA2DE002227B490E
:102710007868FEF707FA27E0FB7B032B22D801A29B
:1027200052F823F035270008412700084D270008FC
:102730005927000802226A497868FEF7F3F912E087
:10274000022269497868FEF7EDF90CE00222684937
:102750007868FEF7E7F906E0022267497868FEF735
:10276000E1F900E000BF00BF052265497868FEF787
:10277000D9F9FB7B032B23D801A252F823F000BF29
:10278000912700089D270008A9270008B527000801
:1027900001225C497868FEF7C5F912E001225A4926
:1027A0007868FEF7BFF90CE0012258497868FEF717
:1027B000B9F906E0012256497868FEF7B3F900E05E
:1027C00000BFFB7BBA6813445B7D032B14D80C223B
:1027D00050497868FEF7A6F9FB7BBA6813445B7D25
:1027E0001A46BB6813445B7E19467868FEF7BCF94D
:1027F0005D217868FEF787F97868FEF7A3F9FB7B1F
:102800000133FB73FB7B032B7FF62EAF0023BB73DF
:102810003CE028217868FEF776F9BB7B0533194642
:102820007868FEF7A1F903223B497868FEF77AF948
:10283000BB7B013319467868FEF796F905223049CB
:102840007868FEF76FF9BB7BBA6813445B7CFF2B9B
:1028500011D073217868FEF756F9BB7BBA68134430
:102860005B7C6133DBB219467868FEF74CF9786817
:10287000FEF768F907E0082228497868FEF752F960
:102880007868FEF75FF9BB7B0133BB73BB7B032B1F
:10289000BFD9102222497868FEF744F9BB685B7FF4
:1028A000FF2B08D108221D497868FEF73BF97868AC
:1028B000FEF748F90EE073217868FEF724F9BB684B
:1028C0005B7F6133DBB219467868FEF71CF97868E4
:1028D000FEF738F900BF1037BD4680BD50550108DE
:1028E000DC5B0108E05B0108E45B0108E85B0108D0
:1028F000EC5B0108F05B0108F45B0108F85B010880
:10290000FC5B0108045C0108085C01080C5C010820
:10291000105C0108145C0108245C0108285C0108B3
:10292000345C010880B584B000AF78607868FFF748
:1029300091FE7868FEF706F92A223A497868FEF790
:10294000F1F87868FEF7FEF807F108031946786891
:10295000FEF7DEFA0346FB73FB7B002B0ED0012B48
:1029600000D05BE0172230497868FEF7DBF8786822
:10297000FEF7E8F87868FEF745FB4FE000BFBB685C
:10298000002B11D0BB68042B0ED8BB68DBB2013B17
:10299000DBB21946082000F0B1FF0346002B31D10D
:1029A0007868FEF741FB39E0BB68042B11D9BB689E
:1029B000082B0ED8BB68DBB2053BDBB2FF21184603
:1029C00001F050F80346002B1CD17868FEF72CFB71
:1029D00024E0BB68092B09D1FF2001F0DDF8034694
:1029E000002B0FD17868FEF71FFB17E017220F4965
:1029F0007868FEF797F87868FEF7A4F87868FEF72D
:102A000001FB0BE006220A497868FEF78BF878682C
:102A1000FEF798F87868FEF7F5FA00BF1037BD4664
:102A200080BD00BF485C010890550108985A010814
:102A3000E85A010880B586B000AF786000F0DAFB94
:102A4000F8600023FB7534E0FB7D032B1ED801A248
:102A500052F823F0652A00086F2A0008792A000836
:102A6000832A000878217868FEF74DF80EE0792176
:102A70007868FEF748F809E07A217868FEF743F8AD
:102A800004E077217868FEF73EF800BF0522584938
:102A90007868FEF747F8FB7DFA6813445B7A1946BD
:102AA0007868FEF761F87868FEF74CF8FB7D013333
:102AB000FB75FB7D032BC7D900233B6190E073219D
:102AC0007868FEF720F83B69DBB26133DBB2194668
:102AD0007868FEF718F8042246497868FEF722F86D
:102AE000FA683B6913440D331B78032B2ED801A2DF
:102AF00052F823F0052B0008172B0008292B00089B
:102B00003B2B000809223C497868FEF70BF87868EF
:102B1000FEF718F823E0132238497868FEF702F828
:102B20007868FEF70FF81AE0132235497868FDF748
:102B3000F9FF7868FEF706F811E01D223149786840
:102B4000FDF7F0FF7868FDF7FDFF08E005222E494C
:102B50007868FDF7E7FF7868FDF7F4FF00BFFA68D3
:102B60003B6913440D331B78022B16D0032B02D084
:102B7000012B00D031E00B2224497868FDF7D2FF09
:102B8000FA683B69134427331B7819467868FDF7C8
:102B9000EBFF7868FDF7D6FF1FE00B221B49786832
:102BA000FDF7C0FFFA683B69134427331B781946C9
:102BB0007868FDF7D9FF072215497868FDF7B2FF5D
:102BC000FA683B69134441331B7819467868FDF76E
:102BD000CBFF7868FDF7B6FF00BF3B6901333B616F
:102BE0003B69192B7FF66BAF00BF1837BD4680BD20
:102BF000745C01087C5C0108845C0108905C01083D
:102C0000A45C0108B85C0108D85C0108E05C01081C
:102C1000EC5C010880B588B000AF78600223BB612E
:102C200000233B610023FB602C22B3497868FDF749
:102C300079FF7868FDF786FF2322B0497868FDF7B1
:102C400071FF7868FDF77EFF07F1180207F11C039A
:102C500019467868FEF7B4F80346BB77BB7F002BB4
:102C60000ED0012B00D09BE11722A5497868FDF713
:102C700059FF7868FDF766FF7868FEF7C3F98FE1C2
:102C800000BFBB69012B73D13B7F773B032B17D868
:102C900001A252F823F000BFBB2C0008A92C0008A9
:102CA000AF2C0008B52C00080023FB7714E00123AB
:102CB000FB7711E00223FB770EE00323FB770BE0A9
:102CC000172290497868FDF72DFF7868FDF73AFFE5
:102CD0007868FEF797F963E115228B497868FDF76C
:102CE00021FF7868FDF72EFF07F110031946786879
:102CF000FEF70EF90346BB77BB7F002B02D0012BFA
:102D00000FD04DE13B69032B17D917227D49786815
:102D1000FDF708FF7868FDF715FF7868FEF772F990
:102D20003EE1172276497868FDF7FCFE7868FDF7EA
:102D300009FF7868FEF766F932E100BF3B69DAB255
:102D4000FB7F1146184601F0E1F80346002B03D142
:102D50007868FEF769F923E106226C497868FDF787
:102D6000E1FE7868FDF7EEFE7868FEF74BF917E1B3
:102D7000BB69022B40F009813B7F732B40F005813A
:102D80007B7F602B40F201817B7F7A2B00F2FD80FC
:102D90001C225F497868FDF7C5FE7868FDF7D2FE12
:102DA0000D225C497868FDF7BDFE7868FDF7CAFE24
:102DB000172259497868FDF7B5FE7868FDF7C2FE1D
:102DC000172256497868FDF7ADFE7868FDF7BAFE20
:102DD000212253497868FDF7A5FE7868FDF7B2FE19
:102DE00007F1140319467868FEF792F80346BB779B
:102DF000BB7F002B02D0012B12D0D1E07B69002BCE
:102E000002D07B69042B17D917223E497868FDF759
:102E100089FE7868FDF796FE7868FEF7F3F8BFE064
:102E2000172237497868FDF77DFE7868FDF78AFE3E
:102E30007868FEF7E7F8B3E000BF7B69012B30D973
:102E4000122238497868FDF76DFE7868FDF77AFE42
:102E500007F1100319467868FEF75AF80346BB7766
:102E6000BB7F002B02D0012B0FD099E03B69172BC1
:102E700019D9172223497868FDF754FE7868FDF7C1
:102E800061FE7868FEF7BEF88AE017221C49786870
:102E9000FDF748FE7868FDF755FE7868FEF7B2F852
:102EA0007EE000BF00E000BF7B69032B4AD1122205
:102EB0001D497868FDF736FE7868FDF743FE07F197
:102EC0000C0319467868FEF723F80346BB77BB7FEF
:102ED000002B02D0012B29D062E0FB68172B33D9DD
:102EE000172208497868FDF71DFE7868FDF72AFE6D
:102EF0007868FEF787F853E0F45C0108245D010868
:102F000090550108985A0108485D0108E85A0108DF
:102F1000605D0108805D0108905D0108A85D010801
:102F2000C05D0108E45D0108F85D010817221E4933
:102F30007868FDF7F7FD7868FDF704FE7868FEF71E
:102F400061F82DE000BF00E000BF7B7F613BD8B29D
:102F50007B69DBB2013BD9B23B69DAB2FB68DBB219
:102F600000F05CFF0346002B03D17868FEF75CF8A5
:102F700016E006220D497868FDF7D4FD7868FDF764
:102F8000E1FD7868FEF73EF80AE017220849786804
:102F9000FDF7C8FD7868FDF7D5FD7868FEF732F8D3
:102FA0002037BD4680BD00BF90550108E85A010892
:102FB000985A010880B584B000AF78604FF404518E
:102FC000184800F0E1FF0346002B1DD10023FB60F1
:102FD00011E0FB68134A1344402219467868FDF754
:102FE000A1FD04200BF009FA0D217868FDF78BFD97
:102FF000FB684033FB60FB68B3F5045FE9D306214F
:103000007868FDF780FD0AE0062207497868FDF739
:1030100089FD7868FDF796FD7868FDF7F3FF1037B6
:10302000BD4680BD840A0020E85A010880B584B0FE
:1030300000AF786006217868FDF765FD0023FB602E
:1030400049E07B6840229A707B680022C3F8042123
:103050007B680022C3F808217B689B7803F0020399
:10306000002B09D07B6800229A707868FDF76AFD12
:103070007868FDF7C7FF3CE07B689B7803F00403AA
:10308000002B21D07B68D3F80431402B17D10023CB
:10309000BB600CE0FA68BB6813447968BA680A44FC
:1030A00003321178144AD154BB680133BB60BB684A
:1030B0003F2BEFD906217868FDF725FD08E01521A3
:1030C0007868FDF720FD14E001200BF096F9C3E7C6
:1030D000FB684033FB60FB68B3F5045FB1D37B68EA
:1030E00000229A704FF40451034800F081FFFDF76D
:1030F000CDFF1037BD4680BD840A002080B582B068
:1031000000AF0AF045FC00F091F8034683F001039C
:10311000DBB2002B08D08422164900200AF0EAFC1A
:103120001549002000F070F800F096F800237B604D
:1031300012E07B681F2B0CD801227B6802FA03F394
:103140001A460C4B5B681340002B02D0786800F0E5
:103150008FF87B6801337B607B681F2BE9D90121E5
:1031600006480BF05EF90246054B1A6000BF0837AF
:10317000BD4680BD38070020A05E0108985E0108AA
:10318000842B002080B500AF094B1B7A1946094AF1
:103190000B461B015B1A5B0013441B78002B00D00D
:1031A00003E0022001F090F800BF00BF80BD00BF27
:1031B00038070020882B002080B400AF064B1B7A14
:1031C0001A4613461B019B1A5B00044A1344184617
:1031D000BD465DF8047B704738070020882B00202F
:1031E00080B400AF024B1846BD465DF8047B7047C3
:1031F000882B002080B400AF024B1846BD465DF816
:10320000047B70473807002080B582B000AF78603B
:1032100039607B6801331B021E22396818460AF0A8
:1032200069FC00BF0837BD4680BD000080B582B094
:1032300000AF3B1D0422194600200AF013FC7B68F6
:10324000044A93420CBF01230023DBB2184608371F
:10325000BD4680BDFACA06AF80B500AF84220349DF
:1032600000200AF0FFFB00BF80BD00BF3807002030
:1032700080B582B000AF78607B68013318027A684D
:1032800013461B019B1A5B00044A13441E22194675
:103290000AF0E8FB00BF0837BD4680BD882B002040
:1032A00080B500AF074B1B7A1946074A0B461B0136
:1032B0005B1A5B0013441B78002B01D101F0CCFAA0
:1032C00000BF80BD38070020882B002080B582B069
:1032D00000AF0346FB71FB79002B00D002E001F048
:1032E0001BF800BF00BF0837BD4680BD80B584B065
:1032F00000AF78600123FB730123BB737B681F2B36
:1033000035D801227B6802FA03F31A461A4B5B6830
:103310001340002B2BD0184B1B7A1946174A0B462B
:103320001B015B1A5B0013441B78BB737B68DAB22A
:10333000114B1A720122124908200AF0DBFB0E4BD6
:103340001B7A19460D4A0B461B015B1A5B0013449E
:103350001B78BA7B9A4206D0BB7B1846FFF7B6FFB4
:10336000FFF710FF01E0FFF79BFF0023FB73FB7BE0
:1033700018461037BD4680BD38070020882B002036
:103380004007002080B584B000AF0346FB710123E5
:10339000FB730B4B1B684FF0FF3118460BF074F8B2
:1033A000FB791846FFF7A2FF0346FB73044B1B682B
:1033B00018460BF0B7F8FB7B18461037BD4680BDAA
:1033C000842B0020B0B586B000AFBA607B600346A6
:1033D000FB730B46BB730123FB753F4B1B684FF020
:1033E000FF3118460BF050F8BB7B1F2B09D8BB7B75
:1033F000012202FA03F31A46384B5B681340002B94
:1034000060D17B680F2B5DD8FB7B002B5AD1BA7B38
:10341000334913461B019B1A5B000B44314A1D467E
:1034200014460FCC28606960AA60EB6007CC286165
:103430006961AA612388AB8300BF00233B6112E06E
:10344000BA683B691344BA7B1878254913461B01B7
:103450009B1A5B00CA183B691344013302461A7079
:103460003B6901333B613A697B689A42E8D3BA7B96
:103470001B4913461B019B1A5B00CA187B68134447
:10348000013300221A70B87BBA7B13461B019B1ACA
:103490005B00134A13441946FFF7B6FE0F4B5B68F7
:1034A000BA7B012101FA02F213430C4A5360042251
:1034B0000D4904200AF01EFBBB7B1846FFF716FFE0
:1034C0000023FB75044B1B6818460BF02BF8FB7DA3
:1034D00018461837BD46B0BD842B002038070020A1
:1034E000882B0020A05E01083C07002080B483B038
:1034F00000AF00237B6011E07B681F2B09D80122FD
:103500007B6802FA03F31A46094B5B681340002BF1
:1035100001D17B6806E07B6801337B607B681F2BF1
:10352000EAD97B6818460C37BD465DF8047B7047C6
:1035300038070020B0B584B000AF0346FB7101230B
:10354000FB73344B1B684FF0FF3118460AF09CFFA9
:10355000FB791F2B53D8FB79012202FA03F31A4699
:103560002D4B5B681340002B49D02B4B5B68FA79DD
:10357000012101FA02F2D2431340274A5360042288
:10358000264904200AF0B6FA234B5B68002B15D1BC
:10359000234A244B14461D460FCD0FC495E80F0057
:1035A00007C423801E490020FFF72EFE1A4B01227C
:1035B0005A600422194904200AF09CFA164B1B7A1F
:1035C000FA799A4219D10023BB6013E0BB681F2B24
:1035D0000DD80122BB6802FA03F31A460E4B5B6852
:1035E0001340002B03D0B868FFF780FE05E0BB68EE
:1035F0000133BB60BB681F2BE8D90023FB73054B6D
:103600001B6818460AF08EFFFB7B18461037BD4634
:10361000B0BD00BF842B0020380700203C070020ED
:10362000882B0020A05E0108B0B584B000AF03462F
:103630000A46FB711346BB710123FB73344B1B68B5
:103640004FF0FF3118460AF01FFFFB791F2B54D8AB
:10365000FB79012202FA03F31A462E4B5B681340F2
:10366000002B4AD0BB791F2B09D8BB79012202FA63
:1036700003F31A46274B5B681340002B3DD1FA79C0
:10368000B97925480B461B015B1A5B001844224997
:1036900013461B019B1A5B00CA1803461468506846
:1036A0009168D5681C6058609960DD601469506944
:1036B00091691C6158619961928B9A83B879BA7942
:1036C00013461B019B1A5B00134A13441946FFF76C
:1036D0009BFD104B5B68BA79012101FA02F213439A
:1036E0000C4A536004220D4904200AF003FABB7906
:1036F0001846FFF7FBFD0023FB73054B1B681846BC
:103700000AF010FFFB7B18461037BD46B0BD00BF66
:10371000842B002038070020882B00203C07002045
:10372000B0B584B000AF03460A46FB711346BB71C7
:103730000123FB733B4B1B684FF0FF3118460AF027
:10374000A3FEFB791F2B63D8FB79012202FA03F356
:103750001A46354B5B681340002B59D0BB791F2BA1
:1037600009D8BB79012202FA03F31A462E4B5B6893
:103770001340002B4CD1FA79B9792C480B461B0128
:103780005B1A5B001844294913461B019B1A5B0016
:10379000CA180346146850689168D5681C60586060
:1037A0009960DD601469506991691C615861996183
:1037B000928B9A83B879BA7913461B019B1A5B00E6
:1037C0001A4A13441946FFF71FFD174B5B68BA7975
:1037D000012101FA02F21343134A5360124B5B6852
:1037E000FA79012101FA02F2D24313400E4A5360E2
:1037F00004220F4904200AF07DF90B4B1B7AFA7959
:103800009A4203D1BB791846FFF770FD0023FB7382
:10381000044B1B6818460AF085FEFB7B18461037E0
:10382000BD46B0BD842B002038070020882B002027
:103830003C07002080B584B000AF78603960012378
:10384000FB732B4B1B684FF0FF3118460AF01CFE30
:103850003B680F2B41D80023BB6014E07A68BB683B
:103860001344244A127A11461878234A0B461B0146
:103870005B1A5B001A44BB681344013302461A709A
:10388000BB680133BB60BA683B689A42E6D3194B08
:103890001B7A1946184A0B461B015B1A5B001A4437
:1038A0003B681344013300221A70124B1B7A013318
:1038B0001B0243F001000F4B1B7A1A4613461B01F3
:1038C0009B1A5B000C4A13440133102219460AF07C
:1038D00011F902F093F90023FB73054B1B6818469E
:1038E0000AF020FEFB7B18461037BD4680BD00BFA6
:1038F000842B002038070020882B002080B584B05E
:1039000000AF03460A46FB711346BB710123FB73EC
:10391000244B1B684FF0FF3118460AF0B5FD224BCF
:103920001B7A1946214A0B461B015B1A5B001344A4
:103930001B78002B2BD11C4B1B7A1846BA791B49DC
:1039400003461B011B1A5B000B4413441533FA7921
:103950001A70154B1B7A01331B021A46BB791533BB
:1039600042EA0300104B1B7A1946BA790B461B0139
:103970005B1A5B00134410330C4A134405330122D5
:1039800019460AF0B7F8FFF78BFC0023FB73054BD1
:103990001B6818460AF0C6FDFB7B18461037BD466B
:1039A00080BD00BF842B002038070020882B00201A
:1039B00080B584B000AF03460A46FB711346BB7165
:1039C0000123FB73244B1B684FF0FF3118460AF0AC
:1039D0005BFD224B1B7A1946214A0B461B015B1AE1
:1039E0005B0013441B78002B2BD11C4B1B7A184611
:1039F000FA791B4903461B011B1A5B000B44134455
:103A00001933BA791A70154B1B7A01331B021A4607
:103A1000FB79193342EA0300104B1B7A1946FA79F5
:103A20000B461B015B1A5B00134418330C4A13440A
:103A30000133012219460AF05DF8FFF731FC00233B
:103A4000FB73054B1B6818460AF06CFDFB7B1846A0
:103A50001037BD4680BD00BF842B002038070020F2
:103A6000882B002080B584B000AF03460A46FB7166
:103A70001346BB710123FB73444B1B684FF0FF31AE
:103A800018460AF001FD424B1B7A1946414A0B4683
:103A90001B015B1A5B0013441B78002B6CD1BB79B4
:103AA000FF2B37D03A4B1B7A19463A4A0B461B017B
:103AB0005B1A5B00134411331B78BA799A425BD0CE
:103AC000334B1B7A1946334A0B461B015B1A5B00CA
:103AD000134412331B78BA799A424DD02C4B1B7A7F
:103AE00019462C4A0B461B015B1A5B001344133327
:103AF0001B78BA799A423FD0254B1B7A1946254A42
:103B00000B461B015B1A5B00134414331B78BA7914
:103B10009A4231D0BB79192B02D9BB79FF2B2BD11B
:103B20001B4B1B7A1846FA791A4903461B011B1ACC
:103B30005B000B4413441133BA791A70144B1B7A8F
:103B400001331B021A46FB79113342EA0300104B82
:103B50001B7A1946FA790B461B015B1A5B0013446A
:103B600010330C4A134401330122194609F0C2FFF5
:103B7000FFF796FB0023FB73044B1B6818460AF003
:103B8000D1FCFB7B18461037BD4680BD842B00203E
:103B900038070020882B002080B584B000AF034692
:103BA000FB710123FB73244B1B684FF0FF31184658
:103BB0000AF06AFC214B1B7A1946214A0B461B016D
:103BC0005B1A5B0013441B78002B2AD1FB79192B5D
:103BD00002D9FB79FF2B24D1184B1B7A1946184ABE
:103BE0000B461B015B1A5B0013441D33FA791A70F4
:103BF000124B1B7A01331B0243F01D000F4B1B7A43
:103C00001A4613461B019B1A5B0018330C4A1344D7
:103C100005330122194609F06DFFFFF741FB002330
:103C2000FB73054B1B6818460AF07CFCFB7B1846AF
:103C30001037BD4680BD00BF842B00203807002010
:103C4000882B002080B586B000AFB9607A601A4634
:103C50000346FB731346BB730123FB75344B1B6890
:103C60004FF0FF3118460AF00FFCBB68B3F5FA7F3E
:103C700053D9BB6840F6096293424ED87B68642BE7
:103C80004BD97B6840F2FE72934246D8FB7B032BF4
:103C900043D8FB7BBA6891B2264A2C335B001344AD
:103CA0000A469A80FB7B5B005C331846FB7B2C3317
:103CB0005B00204A134404330222194609F01AFF1C
:103CC000FB7B7A6891B21B4A30335B0013440A468F
:103CD0009A80FB7B5B0064331846FB7B30335B00D0
:103CE000144A134404330222194609F003FFFB7BF4
:103CF000104A1344BA7B83F86C20FB7B6C33184664
:103D0000FB7B68330B4A134404330122194609F044
:103D1000F1FEFFF7C5FA0023FB75054B1B6818463B
:103D20000AF000FCFB7D18461837BD4680BD00BF79
:103D3000842B00203807002080B586B000AFB96022
:103D40007A601A460346FB731346BB730123FB7567
:103D5000304B1B684FF0FF3118460AF095FBBB68EB
:103D6000B3F5FA7F4CD9BB6840F60962934247D855
:103D70007B68642B44D97B6840F2FE7293423FD843
:103D8000FB7B032B3CD8FB7BBA6891B2224A3833C9
:103D900022F81310FB7B5B0070331846FB7B383333
:103DA0005B001D4A13440222194609F0A3FEFB7B67
:103DB0007A6891B2184A3C3322F81310FB7B5B00FF
:103DC00078331846FB7B3C335B00134A13440222D2
:103DD000194609F08FFEFB7B0F4A1344BA7B83F828
:103DE0008020FB7B80331846FB7B80330A4A1344D8
:103DF0000122194609F07EFEFFF752FA0023FB75F7
:103E0000044B1B6818460AF08DFBFB7D18461837DB
:103E1000BD4680BD842B00203807002090B585B0BA
:103E200000AF0446084611461A462346FB71034676
:103E3000BB710B467B7113463B710123FB73314B06
:103E40001B684FF0FF3118460AF01EFBFB79192B57
:103E50004ED87B79192B02D97B79FF2B48D13B793E
:103E6000192B02D93B79FF2B42D1FB79264A134407
:103E7000BA795A73FB790D331846FB790833224A15
:103E8000134405330122194609F034FEFB791E4A1A
:103E900013447A7983F827207B790D3318467B7990
:103EA0000833194A134405330122194609F022FE4A
:103EB000BB79022B06D1FB79134A13443A7983F874
:103EC000412005E0FB79104A1344FF2283F841208A
:103ED0003B790D3318463B7908330B4A13440533BD
:103EE0000122194609F006FEFFF7DAF90023FB73F9
:103EF000044B1B6818460AF015FBFB7B1846143769
:103F0000BD4690BD842B00203807002080B584B0CA
:103F100000AF03460A46FB711346BB710123FB73D6
:103F2000174B1B684FF0FF3118460AF0ADFABB790A
:103F3000032B1AD8BB79002B17D0FB79032B14D88D
:103F4000FB79104A1344BA795A72FB79093318463F
:103F5000FB7908330B4A134401330122194609F057
:103F6000C9FDFFF79DF90023FB73054B1B6818463D
:103F70000AF0D8FAFB7B18461037BD4680BD00BF5B
:103F8000842B00203807002080B584B000AF786013
:103F900039600123FB73154B1B684FF0FF31184646
:103FA0000AF072FA3B68B3F5045F15D10023BB60D9
:103FB0000CE07A68BB6813444FF480721946B86805
:103FC00009F050FDBB6803F58073BB60BB68B3F5B7
:103FD000045FEED30023FB73044B1B6818460AF002
:103FE000A1FAFB7B18461037BD4680BD842B00200C
:103FF00080B584B000AF786039600123FB73164B45
:104000001B684FF0FF3118460AF03EFA3B68B3F5E3
:10401000045F16D10023BB600DE07A68BB681344CF
:1040200040221946B86809F065FD05200AF0E5F957
:10403000BB684033BB60BB68B3F5045FEDD30023BE
:10404000FB73054B1B6818460AF06CFAFB7B18469D
:104050001037BD4680BD00BF842B002080B400AF68
:10406000BFF34F8F054BDB6803F4E0620349044B59
:104070001343CB60BFF34F8F00BFFDE700ED00E0BF
:104080000400FA0580B500AF02F028F901F086FAC5
:10409000FFF734F800F024F8FCF764FA01F01EFD95
:1040A000FCF768FCFCF790FA0346184600F0FCF8B1
:1040B000FCF796FA0346184601F090FD012001F046
:1040C00017FC0220FCF798FA002001F0A3FDFFF78F
:1040D00059F80020FCF768FC0AF024F9FFF7BEFF4E
:1040E00080B58AB000AF07F1140300221A605A604D
:1040F0009A60DA601A61674B1B6E664A43F480531C
:104100001366644B1B6E03F480533B613B69614B48
:10411000DB6C604A43F00103D3645E4BDB6C03F05D
:104120000103FB60FB685B4BDB6C5A4A43F0020304
:10413000D364584BDB6C03F00203BB60BB68554B88
:10414000DB6C544A43F00403D364524BDB6C03F042
:1041500004037B607B68002210214FF0904004F044
:104160001DF810237B610123BB610023FB61002349
:104170003B6207F1140319464FF0904003F04EFEE6
:10418000E0237B610223BB610023FB6103233B62CD
:1041900005237B6207F1140319464FF0904003F0AA
:1041A0003DFE0022F0213C4803F0F8FF00224FF4CE
:1041B00044613A4803F0F2FF00224FF480714FF05F
:1041C000904003F0EBFF4FF480737B610123BB61F0
:1041D0000023FB6100233B6207F1140319464FF0F3
:1041E000904003F01BFEF0237B610123BB610023A1
:1041F000FB6100233B6207F114031946264803F0D4
:104200000DFE4FF444637B610123BB610023FB611E
:1042100000233B6207F114031946204803F0FEFD1A
:104220001F4B204A1A601E4B4FF482725A601C4B7F
:1042300000229A601A4B4FF4E062DA60184B0022B9
:104240001A61174B00225A61154B4FF400729A61A4
:10425000134B3822DA61124B80221A62104B002273
:104260005A620F4B00229A620D4B0F22DA620C4BFE
:1042700000221A630A4B00225A63094807F080F8AB
:104280000346002B01D001F009FC00BF2837BD46D2
:1042900080BD00BF00100240000400480008004834
:1042A000482F00200030014080B483B000AF786018
:1042B000044A7B68136000BF0C37BD465DF8047B81
:1042C000704700BFB02F002080B58AB000AF034612
:1042D000FB800E4BFB600E4B3B61FB88BB820023D7
:1042E000BB614FF40073FB6100233B6200237B62E0
:1042F00007F10C03002118460AF027F80246054B87
:104300001A6000BF2837BD4680BD00BF0C5E0108A3
:1043100031430008AC2F002080B400AF034B0122D2
:104320001A7000BFBD465DF8047B7047B52F0020B2
:1043300080B5BCB002AF786007F150039022002135
:10434000184611F066F807F12803282200211846C4
:1043500011F05FF800237B62012210214FF09040A2
:1043600003F01CFF804B00221A70804B00221A7051
:104370007F4B00221A707F4B00221A707E4B1B6805
:10438000002B01D101F08AFB07F15003184600F021
:10439000FBF807F12403184600F054FD0023C7F88A
:1043A000E4300BE007F13802D7F8E430134401227F
:1043B0001A70D7F8E4300133C7F8E430D7F8E430A6
:1043C000172BEFD90023C7F8E0300DE0D7F8E03025
:1043D0009B0007F1E8021344002243F8C02CD7F8F1
:1043E000E0300133C7F8E030D7F8E030032BEDD9E7
:1043F00097F85030002B21D097F85130FF2B19D06F
:1044000097F8513007F1E802134413F8B03C002B41
:1044100010D197F85230FF2B0CD097F8523007F19B
:10442000E802134413F8B03C012B03D1514B002296
:104430001A7017E04F4B01221A7013E097F85130B1
:10444000FF2B0CD097F8513007F1E802134413F812
:10445000B03C002B03D1474B01221A7002E0454BC0
:1044600000221A70434B1B7883F00103DBB2002B50
:1044700010D007F1280207F150031146184600F04A
:1044800025FA07F1240207F1280107F15003184625
:1044900000F052FB01F0D2FA0346002B33D0002289
:1044A00010214FF0904003F079FE07F10C0207F164
:1044B00028031146184600F009FD07F1180207F11C
:1044C0000C010A2300930A232C4806F0EDFF034653
:1044D000012B01D101F0E2FA07F118030921184676
:1044E00001F02EF80346002B07D007F1180207F160
:1044F00028031146184600F0D8FE012210214FF083
:10450000904003F04BFE184B1B78002B0CD0164B41
:1045100000221A7007F12403184600F093FC07F1FB
:104520005003184600F030F8104B1B78002B12D0C7
:10453000002210214FF0904003F030FE07F12403D9
:10454000184600F07FFC0E4B1B68184609F049FF27
:10455000084B00221A700B4B1B680133094A136089
:10456000042009F04AFF43E7B42F0020B52F0020B4
:10457000B62F0020B72F0020B02F0020482F00209A
:10458000AC2F0020F02F002080B58AB000AF7860FB
:10459000FEF712FE3862FEF72DFEF861FB695A7ACB
:1045A0007B68DA70FB699A7A7B681A71FB69DA7A40
:1045B0007B685A71FB691A7B7B689A713B6A5B7FE7
:1045C000FF2B1FD03B6A5B7F1A46FB6913445B7B62
:1045D000022B0CBF01230023DAB27B681A703B6AFE
:1045E0005B7F1A46FB69134493F827207B685A7057
:1045F0003B6A5B7F1A46FB69134493F841207B6852
:104600009A7008E07B6800221A707B68FF225A705B
:104610007B68FF229A70002387F827304DE097F8D7
:1046200027303A6A13445B7CFF2B2FD097F8273052
:104630003A6A13445B7C194697F82730FA690A44B2
:10464000517B7A6813440A46DA7197F827303A6A40
:1046500013445B7C194697F82730FA690A4492F8AC
:1046600027107A6813440A46DA7297F827303A6AB4
:1046700013445B7C194697F82730FA690A4492F88C
:1046800041107A6813440A46DA7311E097F827302C
:104690007A6813440022DA7197F827307A68134455
:1046A000FF22DA7297F827307A681344FF22DA7310
:1046B00097F82730013387F8273097F82730032BF6
:1046C000ADD9002387F82630BDE097F8262097F86B
:1046D0002630396A0A44517D7A6813440A46DA74EE
:1046E00097F826303A6A13445B7D082B00F0A680C9
:1046F00097F826303A6A13445B7D032B00F29E80C4
:1047000097F826303A6A13445B7DFA692C335B00D4
:1047100013449B88BB6197F826303A6A13445B7D4B
:10472000FA6930335B0013449B887B6197F826302D
:104730003A6A13445B7D1A463B6A13445B7E3B61D5
:1047400097F82620FB69383233F81230FB6097F86F
:104750002620FB693C3233F81230BB6097F82620E4
:10476000B9693B69C91A7B68163243F8221097F879
:104770002620B9693B6919447B681A3243F8221034
:1047800097F826207B680632B96843F8221097F81C
:10479000262079693B69C91A7B680A3243F82210DE
:1047A0007A69BB69D31ABA6802FB03F279693B697B
:1047B000CB1A92FBF3F2FB68D11897F82620BB685E
:1047C000C91A7B680E3243F822103B695A42BB6912
:1047D000D31ABA6802FB03F279693B69CB1A92FBE0
:1047E000F3F197F82620FB6819447B68123243F8EE
:1047F000221097F826207B681E32F96843F82210B1
:1048000097F826303A6A13445B7D194697F82630AC
:10481000FA690A4492F86C107A6813440A4683F8DD
:10482000882097F8262097F82630F9690A4492F8EC
:1048300080107A6813440A4683F88C2097F8263053
:10484000013387F8263097F82630032B7FF63DAFEB
:1048500000BF2837BD4680BD80B400AF034B0122A6
:104860001A7000BFBD465DF8047B7047B42F00206E
:10487000B0B582B000AF78600C4B01221A7002E034
:104880000A2009F0BAFD094B1B78002BF8D17B6890
:10489000074A1C4615460FCD0FC495E80F0084E863
:1048A0000F0078680837BD46B0BD00BFB62F0020A6
:1048B000B82F002080B400AF034B1B781846BD46CC
:1048C0005DF8047B704700BFB72F002080B58EB025
:1048D00000AF786039607B68DB781A463B6853F834
:1048E0002230FB617B681B791A463B6853F8223003
:1048F0003B627B685B791A463B6853F822307B62E7
:104900007B689B791A463B6853F82230BB6207F1FB
:104910000C0300221A605A609A60DA6008F070FF97
:1049200007F10C03184608F0E3FF01F0ABF803466B
:104930007B637B6B002B05DDBB691A037B6BB2FBD2
:10494000F3F3BB617A4B1B78002B1AD0784B002213
:104950001A70FB69774A13603B6A764A53607B6A38
:10496000744A9360BB6A734AD360FB68714A1361EF
:104970003B69704A53617B696E4A9361BB696D4ABA
:10498000D361002387F82F30C9E097F82F307A6879
:104990001344DB7C87F82E3097F82E30072B00F27B
:1049A000A78001A252F823F0C9490008C9490008AC
:1049B000C9490008C9490008CB4A0008CB4A000889
:1049C000CB4A0008CB4A000897F82F307A68134486
:1049D00093F88830002B0CD097F82E309B0007F10D
:1049E0003802134453F82C3CC3F57F630F333B6309
:1049F00008E097F82E309B0007F13802134453F873
:104A00002C3C3B6397F82F207B68063253F822300A
:104A10003A6B02FB03F297F82F107B680A3153F8C8
:104A2000213092FBF3F37B6397F82F207B681632DB
:104A300053F822303A6B9A4209DA97F82F207B68B4
:104A40000E3253F822307A6B13447B6319E097F8E7
:104A50002F207B681A3253F822303A6B9A4209DDD4
:104A600097F82F207B68123253F822307A6B134468
:104A70007B6306E097F82F207B681E3253F82230C4
:104A80007B637B6BB3F5805F02DB40F6FF737B6378
:104A90007B6B002B01DA00237B6397F82F307A6859
:104AA000134493F88C30002B04D07B6BC3F57F63E9
:104AB0000F337B6397F82F307A681344DB781946FD
:104AC0007A6B3B6843F8212024E097F82E30043BB2
:104AD00097F82F2079680A44D27811469B0007F195
:104AE0003802134453F81C2C3B6843F8212011E092
:104AF00097F82F3097F82F2079680A44D27811461A
:104B00009B0007F13802134453F81C2C3B6843F810
:104B1000212000BF97F82F30013387F82F3097F806
:104B20002F30032B7FF631AF00BF3837BD4680BD35
:104B3000B62F0020B82F002080B58AB000AFF860F3
:104B4000B9607A605FE0BC4B196807F118034FF059
:104B5000FF32184609F086FDFB697B613B7D87F8D3
:104B6000273097F82730FA681344DB79022B1CD0E2
:104B7000032B33D0012B45D17B7D012B43D197F8FB
:104B800027307A6813441A780132D2B21A7097F833
:104B900027307A6813441B78012B34D997F82730D3
:104BA0007A68134400221A702DE07B7D012B2AD1F4
:104BB00097F827307A6813441A780132D2B21A7003
:104BC00097F827307A6813441B78022B1BD997F883
:104BD00027307A68134400221A7014E07B7D012B81
:104BE00006D197F827307A68134401221A700AE038
:104BF0007B7D022B07D197F827307A681344002277
:104C00001A7000E000BF8C4B1B68184609F09EFD2F
:104C10000346002B97D1002387F8273003E197F84C
:104C200027307A6813441B78012B02D0022B5AD00C
:104C30009AE097F82730FA681344DB79022B22D1E7
:104C400097F82730FA681344DB7AFF2B09D097F8DE
:104C50002730FA681344DB7A1A46BB6813440122F2
:104C60001A7497F82730FA681344DB7BFF2B1BD0AC
:104C700097F82730FA681344DB7B1A46BB68134465
:104C800001221A7410E097F82730FA681344DB7A8F
:104C9000FF2B09D097F82730FA681344DB7A1A46BD
:104CA000BB68134400221A7497F82730634A52F8FD
:104CB000330097F82730624A32F823300122194630
:104CC00003F06CFA97F827305C4ADB00134458680D
:104CD00097F827305A4A9B0013445B8800221946F4
:104CE00003F05CFA9AE097F82730FA681344DB7A0D
:104CF000FF2B09D097F82730FA681344DB7A1A465D
:104D0000BB68134401221A7497F82730FA681344D9
:104D1000DB7BFF2B09D097F82730FA681344DB7B45
:104D20001A46BB68134400221A7497F82730434A86
:104D300052F8330097F82730414A32F823300022E6
:104D4000194603F02BFA97F827303C4ADB0013444E
:104D5000586897F827303A4A9B0013445B88012231
:104D6000194603F01BFA59E097F82730FA68134404
:104D7000DB79022B22D197F82730FA681344DB7ACB
:104D8000FF2B09D097F82730FA681344DB7A1A46CC
:104D9000BB68134400221A7497F82730FA6813444A
:104DA000DB7BFF2B1BD097F82730FA681344DB7BA3
:104DB0001A46BB68134401221A7410E097F8273092
:104DC000FA681344DB7AFF2B09D097F82730FA688A
:104DD0001344DB7A1A46BB68134401221A7497F80D
:104DE0002730164A52F8330097F82730144A32F821
:104DF00023300022194603F0D1F997F827300F4AE3
:104E0000DB001344586897F827300D4A9B00134481
:104E10005B880022194603F0C1F900BF97F82730DC
:104E2000013387F8273097F82730032B7FF6F7AE4A
:104E300000BF2837BD4680BDB02F0020C05E0108EE
:104E4000E05E010880B586B000AF78607B68002224
:104E50001A707B68013300221A707B6802330022CB
:104E60001A707B68033300221A700022F021144864
:104E700003F094F900224FF44461124803F08EF9D4
:104E800000224FF480714FF0904003F087F90AE060
:104E90000D4B196807F10C034FF0FF32184609F06B
:104EA000E1FB3B69BB60084B1B68184609F04EFCF0
:104EB0000346002BECD100BF1837BD4680BD00BFB4
:104EC0000004004800080048B02F002090B583B0CF
:104ED00000AF786039607B681B68DAB23B681A7093
:104EE0007B681B681B0ADAB23B68013302F00F02D1
:104EF000D2B21A703B6801331B785BB27A68127CBD
:104F0000012A01D1102200E0002213435AB23B686B
:104F10000133D2B21A703B6801331B785BB27A68F6
:104F2000527C012A01D1202200E0002213435AB210
:104F30003B680133D2B21A703B6801331B785BB215
:104F40007A68927C012A01D1402200E000221343BA
:104F50005AB23B680133D2B21A703B6801331B78F6
:104F60005BB27A68D27C012A02D16FF07F0200E046
:104F7000002213435AB23B680133D2B21A707B68E5
:104F80005A683B680233D2B21A707B685B681B0AAE
:104F9000DAB23B68033302F00F02D2B21A703B68F8
:104FA00003331B785BB27A68127D012A01D110228B
:104FB00000E0002213435AB23B680333D2B21A70A6
:104FC0003B6803331B785BB27A68527D012A01D1BA
:104FD000202200E0002213435AB23B680333D2B2CE
:104FE0001A703B6803331B785BB27A68927D012AA2
:104FF00001D1402200E0002213435AB23B68033340
:10500000D2B21A703B6803331B785BB27A68D27DE8
:10501000012A02D16FF07F0200E0002213435AB24E
:105020003B680333D2B21A707B689A683B680433DA
:10503000D2B21A707B689B681B0ADAB23B680533F0
:1050400002F00F02D2B21A703B6805331B785BB2D4
:105050007A68127E012A01D1102200E00022134357
:105060005AB23B680533D2B21A703B6805331B78DD
:105070005BB27A68527E012A01D1202200E0002230
:1050800013435AB23B680533D2B21A703B680533FA
:105090001B785BB27A68927E012A01D1402200E03F
:1050A000002213435AB23B680533D2B21A703B68F0
:1050B00005331B785BB27A68D27E012A02D16FF089
:1050C0007F0200E0002213435AB23B680533D2B29C
:1050D0001A707B68DA683B680633D2B21A707B6854
:1050E000DB681B0ADAB23B68073302F00F02D2B268
:1050F0001A703B6807331B785BB27A68127F012A0B
:1051000001D1102200E0002213435AB23B6807335A
:10511000D2B21A703B6807331B785BB27A68527F51
:10512000012A01D1202200E0002213435AB23B6839
:105130000733D2B21A703B6807331B785BB27A68C8
:10514000927F012A01D1402200E0002213435AB28B
:105150003B680733D2B21A703B6807331B785BB2E7
:105160007A68D27F012A02D16FF07F0200E000222C
:1051700013435AB23B680733D2B21A707B6893F874
:105180002030012B0CBF01230023DAB23B68083327
:105190001A703B6808331B785BB27A6892F821205A
:1051A000012A01D1022200E0002213435AB23B68D7
:1051B0000833D2B21A703B6808331B785BB27A6846
:1051C00092F82220012A01D1042200E00022134398
:1051D0005AB23B680833D2B21A703B6808331B7866
:1051E0005BB27A6892F82320012A01D1082200E0FC
:1051F000002213435AB23B680833D2B21A703B689C
:1052000008331B785BB27A6892F82420012A01D116
:10521000102200E0002213435AB23B680833D2B296
:105220001A703B6808331B785BB27A6892F82520C5
:10523000012A01D1202200E0002213435AB23B6828
:105240000833D2B21A703B6808331B785BB27A68B5
:1052500092F82620012A01D1402200E000221343C7
:105260005AB23B680833D2B21A703B6808331B78D5
:105270005BB27A6892F82720012A02D16FF07F0290
:1052800000E0002213435AB23B680833D2B21A70CE
:105290003B6803F109040921386800F02FF903463F
:1052A000237000BF0C37BD4690BD80B483B000AF03
:1052B000786039603B681B781A463B6801331B787D
:1052C0001B0203F4706313431A467B681A603B6841
:1052D00002331B781A463B6803331B781B0203F426
:1052E000706313431A467B685A603B6804331B782B
:1052F0001A463B6805331B781B0203F470631343A3
:105300001A467B689A603B6806331B781A463B68EE
:1053100007331B781B0203F4706313431A467B6840
:10532000DA603B6801331B781B11DBB203F0010329
:10533000DAB27B681A743B6801331B785B11DBB20D
:1053400003F00103DAB27B685A743B6801331B78BF
:105350009B11DBB203F00103DAB27B689A743B68FD
:1053600001331B78DB09DAB27B68DA743B680333FC
:105370001B781B11DBB203F00103DAB27B681A75EC
:105380003B6803331B785B11DBB203F00103DAB235
:105390007B685A753B6803331B789B11DBB203F0C3
:1053A0000103DAB27B689A753B6803331B78DB092B
:1053B000DAB27B68DA753B6805331B781B11DBB208
:1053C00003F00103DAB27B681A763B6805331B7879
:1053D0005B11DBB203F00103DAB27B685A763B68FB
:1053E00005331B789B11DBB203F00103DAB27B6853
:1053F0009A763B6805331B78DB09DAB27B68DA768C
:105400003B6807331B781B11DBB203F00103DAB2F0
:105410007B681A773B6807331B785B11DBB203F0BC
:105420000103DAB27B685A773B6807331B789B111C
:10543000DBB203F00103DAB27B689A773B6807338B
:105440001B78DB09DAB27B68DA773B6808331B78B4
:1054500003F00103DAB27B6883F820203B6808334D
:105460001B785B10DBB203F00103DAB27B6883F8D0
:1054700021203B6808331B789B10DBB203F001034B
:10548000DAB27B6883F822203B6808331B78DB1094
:10549000DBB203F00103DAB27B6883F823203B68B8
:1054A00008331B781B11DBB203F00103DAB27B680F
:1054B00083F824203B6808331B785B11DBB203F0D0
:1054C0000103DAB27B6883F825203B6808331B7838
:1054D0009B11DBB203F00103DAB27B6883F826206C
:1054E0003B6808331B78DB09DAB27B6883F8262037
:1054F00000BF0C37BD465DF8047B704780B485B0B3
:1055000000AF78603960A523FB730AE07B685A1C02
:105510007A601A78FB7B5340DBB21A46074B9B5CE0
:10552000FB733B685A1E3A60002BEFD1FB7B184699
:105530001437BD465DF8047B704700BFF05E01087C
:1055400080B584B000AF7860396039687868FFF75B
:10555000D5FF0346FB737A683B6813441B78FA7BDC
:105560009A420CBF01230023DBB218461037BD4618
:1055700080BD000080B400AFBFF34F8F054BDB68E8
:1055800003F4E0620349044B1343CB60BFF34F8F36
:1055900000BFFDE700ED00E00400FA0580B58CB027
:1055A00000AF07F11C0300221A605A609A60DA60AB
:1055B0001A6100F0DBF8664B1B6E654A43F001038D
:1055C0001366634B1B6E03F00103BB61BB69604B49
:1055D0009B6D5F4A43F0805393655D4B9B6D03F079
:1055E00080537B617B6900220F216FF0010002F084
:1055F00065FA574BDB6C564A43F00403D364544BB3
:10560000DB6C03F004033B613B69514BDB6C504A9C
:1056100043F08003D3644E4BDB6C03F08003FB60EC
:10562000FB684B4BDB6C4A4A43F00103D364484BA5
:10563000DB6C03F00103BB60BB68454BDB6C444A89
:1056400043F00203D364424BDB6C03F002037B6044
:105650007B683F4BDB6C3E4A43F00803D3643C4B12
:10566000DB6C03F008033B603B6800224FF4004111
:10567000384802F093FD4FF40043FB6101233B6285
:1056800000237B620023BB6207F11C0319463148EB
:1056900002F0C4FB0323FB6100233B6201237B6216
:1056A00007F11C0319462C4802F0B8FB0823FB61E4
:1056B00000233B6201237B6207F11C0319464FF074
:1056C000904002F0ABFB4FF46043FB6100233B6270
:1056D00001237B6207F11C031946204802F09EFB60
:1056E00040F60443FB6100233B6202237B6207F127
:1056F0001C031946174802F091FB0423FB610023A9
:105700003B6202237B6207F11C031946144802F036
:1057100085FB07F031FE07F069FF124B124A1A6051
:10572000104B03225A600F4B4FF47A72DA600D4B24
:105730004FF47A729A600B4803F05BFA0346002B31
:1057400001D000F0ABF900BF3037BD4680BD00BFCF
:105750000010024000040048001C004800080048F7
:10576000000C0048F42F00200030004080B5B8B095
:1057700000AF07F19C034422002118460FF049FEB8
:1057800007F1880300221A605A609A60DA601A6191
:105790003B468822002118460FF03BFE1823C7F82D
:1057A0009C300123C7F8B0300123C7F8B430002380
:1057B000C7F8B8306023C7F8BC300223C7F8C4303C
:1057C0000123C7F8C8300123C7F8CC302823C7F815
:1057D000D0300723C7F8D4300223C7F8D8300223CB
:1057E000C7F8DC3007F19C03184604F049FB034678
:1057F000002B01D000F052F90F23C7F888300323A3
:10580000C7F88C300023C7F890300023C7F89430D5
:105810004FF4C063C7F8983007F188030421184695
:1058200004F0DEFE0346002B01D000F037F946F20B
:1058300041033B600023BB6300233B654FF0805373
:10584000BB674FF08063FB6601237B600123BB6075
:105850001823FB6007233B6102237B610223BB61AA
:105860004FF08873FB613B46184605F0D9F80346B4
:10587000002B01D000F012F94FF4007004F09AFAF6
:105880000346002B01D000F009F900BFE037BD4608
:1058900080BD000080B400AF134B1B68124A43F078
:1058A00001031360104B00229A600F4B1B680E4AD5
:1058B00023F0A85323F4102313600B4B4FF48052B2
:1058C000DA60094B1B68084A23F480231360064BF7
:1058D00000229A61054B4FF000629A6000BFBD46FE
:1058E0005DF8047B704700BF0010024000ED00E04F
:1058F00080B58AB000AF0346FB800D4BFB600D4BBB
:105900003B61FB88BB820023BB618023FB610023DA
:105910003B6200237B6207F10C030021184608F06C
:1059200014FD0246044B1A6000BF2837BD4680BDF7
:105930001C5E01083D590008D82F002080B586B0B4
:1059400000AF78602B4B2C4A1A602A4B03225A6016
:10595000284B9622DA60274B4FF496729A602548BE
:1059600003F047F90346002B01D000F097F807F049
:1059700055FF07F10C03184607F0E4FFFB6844F6F7
:105980007A1202FB03F31B0B1C4A13603B6941F6BE
:10599000C81202FB03F31B0B194A13607B69194AF7
:1059A00013604FF40041184802F010FCFA2008F090
:1059B00024FD104803F063F9144B1B683B2B0DD9F1
:1059C000134B1B68002B09D0124B1B681D2B07D8EB
:1059D000FDF7F2FB03461B78002B01D1FFF7CAFD50
:1059E0000A4B00221A600A4B00221A60094B00225F
:1059F0001A60BCE7F42F002000300040DC2F0020AC
:105A0000E02F0020E42F002000040048E82F0020B1
:105A1000EC2F0020F02F002080B400AF064B1B6855
:105A2000B3F57A6F8CBF01230023DBB21846BD4665
:105A30005DF8047B704700BFDC2F002080B400AF0E
:105A4000064B1B68B3F57A6F8CBF01230023DBB2D2
:105A50001846BD465DF8047B704700BFE02F00206C
:105A600080B400AF064B1B6841F2081293428CBF12
:105A700001230023DBB21846BD465DF8047B704766
:105A8000DC2F002080B400AF034B1B681846BD46D6
:105A90005DF8047B704700BFE42F002080B500AFA5
:105AA000FFF768FD80B500AFFFF764FD80B500AF7C
:105AB000FFF760FD80B500AFFFF75CFD80B500AF7C
:105AC000FFF758FD80B500AFFFF754FD80B400AF7D
:105AD00000BFBD465DF8047B7047000080B588B00C
