:020000040800F2
:10000000008000200D4E0008DD4C0008E54C000883
:10001000ED4C0008F54C0008FD4C00080000000005
:100020000000000000000000000000005D4E00081D
:100030005D4E0008000000005D4E0008CD4C000839
:100040005D4E00085D4E00085D4E00085D4E0008E4
:100050005D4E00085D4E00085D4E00085D4E0008D4
:100060005D4E00085D4E00085D4E00085D4E0008C4
:100070005D4E00085D4E00085D4E00085D4E0008B4
:100080005D4E00085D4E00085D4E00080000000057
:100090000000000000000000000000005D4E0008AD
:1000A0005D4E00085D4E00085D4E00085D4E000884
:1000B0000000000000000000000000005D4E00088D
:1000C0005D4E00085D4E00085D4E00085D4E000864
:1000D0005D4E00085D4E00085D4E00080000000007
:1000E0005D4E00085D4E00080000000000000000AA
:1000F0000000000000000000000000005D4E00084D
:1001000000000000000000005D4E0008000000003C
:1001100000000000000000005D4E0008000000002C
:100120006D4700085D4E00085D4E00085D4E0008FA
:100130005D4E00080000000000000000000000000C
:1001400000000000000000000000000000000000AF
:100150005D4E00085D4E00085D4E00085D4E0008D3
:10016000000000000000000000000000000000008F
:10017000000000000000000000000000000000007F
:100180005D4E00085D4E0008000000000000000009
:10019000000000005D4E00080000000000000000AC
:1001A000000000000000000000000000000000004F
:1001B0000000000000000000000000005D4E00088C
:0801C0005D4E00085D4E0008D1
:1001C80010B5054C237833B9044B13B10448AFF389
:1001D80000800123237010BD0C00002000000000E7
:1001E800B84E000808B5034B1BB103490348AFF3E9
:1001F800008008BD0000000010000020B84E000874
:1002080053B94AB9002908BF00281CBF4FF0FF3175
:100218004FF0FF3000F072B9ADF1080C6DE904CE73
:1002280000F006F8DDF804E0DDE9022304B07047C9
:100238002DE9F047089E04468846002B4BD18A4298
:10024800154667D9B2FA82F24AB1C2F1200701FA1B
:1002580002F320FA07F7954047EA030894404FEA6B
:10026800154E230CB8FBFEF71FFA85FC0EFB17880A
:1002780043EA084307FB0CF1994209D9EB1807F147
:10028800FF3080F01B81994240F21881023F2B44D5
:100298005B1AA4B2B3FBFEF00EFB103344EA03442E
:1002A80000FB0CFCA44509D92C1900F1FF3380F0A0
:1002B8000781A44540F2048102382C4440EA0740F3
:1002C800A4EB0C0400271EB1D4400023C6E9004368
:1002D8003946BDE8F0878B4209D9002E00F0EB8043
:1002E8000027C6E9000138463946BDE8F087B3FA69
:1002F80083F7002F47D18B4202D3824200F2FA8063
:10030800841A61EB030301209846002EE0D0C6E969
:100318000048DDE702B9FFDEB2FA82F2002A40F0B7
:100328008F80491B4FEA154E1FFA85F80127B1FB4C
:10033800FEFC230C0EFB1C1143EA014308FB0CF1E5
:10034800994207D9EB180CF1FF3002D2994200F21A
:10035800CD808446591AA3B2B1FBFEF00EFB1014EF
:1003680043EA044408FB00F8A04507D92C1900F11A
:10037800FF3302D2A04500F2B6801846A4EB080469
:1003880040EA0C409FE7C7F1200CBB4022FA0CFE64
:100398004EEA030E01FA07F420FA0CF521FA0CF3E1
:1003A8004FEA1E482543B3FBF8F92C0C08FB193318
:1003B8001FFA8EFA44EA034309FB0AF49C4202FA44
:1003C80007F200FA07F10BD91EEB030309F1FF301E
:1003D80080F087809C4240F28480A9F1020973442E
:1003E8001B1BADB2B3FBF8F008FB103345EA03441E
:1003F80000FB0AFAA24508D91EEB040400F1FF33FA
:100408006BD2A24569D90238744440EA0940A0FB7E
:100418000289A4EB0A044C45C2464B4654D351D03A
:10042800002E69D0B1EB0A0564EB030404FA0CFC56
:10043800FD40FC404CEA0505C6E90054002747E7A3
:10044800C2F1200320FA03F7954001FA02F021FADD
:1004580003F34FEA154E3843010CB3FBFEF71FFABE
:1004680085F80EFB173341EA034107FB08F38B427B
:1004780004FA02F407D9691807F1FF3C2FD28B421E
:100488002DD9023F2944CB1A81B2B3FBFEF00EFBF3
:10049800103341EA034100FB08F38B4207D969187E
:1004A80000F1FF3C17D28B4215D902382944C91AEA
:1004B80040EA07473BE73746304609E70746E7E69D
:1004C8001846FBE64145ABD2B8EB020A69EB0E02CF
:1004D80001381346A4E76046E9E7184695E76746FA
:1004E800D1E781467CE702382C4447E7ACF1020C9F
:1004F8002B442FE7384608E73746E9E6704700BF40
:1005080080B500AF0E4B1B680D4A43F400731360AF
:100518000B4B1B680A4A43F480631360084B1B6843
:10052800074A43F480731360032000F03FFD002066
:1005380000F010F800F006F80023184680BD00BF50
:10054800003C024080B400AF00BFBD465DF8047BAC
:100558007047000080B582B000AF7860124B1A680F
:10056800124B1B7819464FF47A73B3FBF1F3B2FBC5
:10057800F3F3184600F041FD0346002B01D0012398
:100588000EE07B680F2B0AD8002279684FF0FF3005
:1005980000F017FD064A7B681360002300E0012382
:1005A80018460837BD4680BD08000020040000201A
:1005B8000000002080B400AF064B1B781A46064B9B
:1005C8001B681344044A136000BFBD465DF8047BF2
:1005D800704700BF040000202C00002080B400AF4A
:1005E800034B1B681846BD465DF8047B704700BF87
:1005F8002C00002080B584B000AF78600023FB7326
:100608007B68002B01D1012333E07B681B6C002B36
:1006180009D1786800F031F87B6800225A647B6859
:10062800002283F83C207B681B6C03F01003002B2E
:1006380018D17B681B6C23F4885323F0020343F022
:1006480002027B681A64786800F080FA7B680022EE
:100658005A647B681B6C23F0030343F001027B6838
:100668001A6401E00123FB737B68002283F83C20B5
:10067800FB7B18461037BD4680BD80B483B000AF01
:10068800786000BF0C37BD465DF8047B70470000FA
:1006980080B586B000AFF860B9607A6000233B612E
:1006A800FB6893F83C30012B01D10223B1E0FB68D1
:1006B800012283F83C20FB681B689B6803F0010358
:1006C800012B18D0FB681B689A68FB681B6842F00E
:1006D80001029A60514B1B68514AA2FB03239A0CF2
:1006E80013465B0013443B6102E03B69013B3B61FD
:1006F8003B69002BF9D1FB681B689B6803F0010379
:10070800012B40F08580FB681B6C23F4E06323F029
:10071800010343F48072FB681A64FB681B685B681A
:1007280003F48063002B07D0FB681B6C23F4405351
:1007380043F48052FB681A64FB681B6C03F4805313
:10074800B3F5805F06D1FB685B6C23F00602FB689B
:100758005A6402E0FB6800225A64FB68002283F8AE
:100768003C20304B7B61FB689B6B2F4ADA63FB684C
:100778009B6B2E4A1A64FB689B6B2D4ADA64FB68F4
:100788001B686FF022021A60FB681B685A68FB68D6
:100798001B6842F080625A60FB681B689A68FB68B5
:1007A8001B6842F480729A60FB68986BFB681B6850
:1007B8004C331946BA687B6800F0E6FC7B695B68D5
:1007C80003F01F03002B0FD1FB681B689B6803F025
:1007D8004053002B1CD1FB681B689A68FB681B6898
:1007E80042F080429A6013E0FB681B68114A93420A
:1007F8000ED1FB681B689B6803F04053002B07D1A0
:10080800FB681B689A68FB681B6842F080429A6024
:10081800002318461837BD4680BD00BF08000020D9
:1008280083DE1B43002301404D0D0008070E00081E
:10083800230E00080020014080B584B000AF786026
:100848000023FB737B6893F83C30012B01D1022312
:1008580038E07B68012283F83C207B681B689A6833
:100868007B681B6822F001029A607B681B689B68A2
:1008780003F00103002B20D17B681B689A687B6812
:100888001B6822F480729A607B689B6B184600F0A4
:10089800DBFC0346FB737B681B685A687B681B6834
:1008A80022F080625A607B681B6C23F4885323F023
:1008B800010343F001027B681A647B68002283F815
:1008C8003C20FB7B18461037BD4680BD80B483B002
:1008D80000AF786000BF0C37BD465DF8047B7047F9
:1008E80080B483B000AF786000BF0C37BD465DF8B8
:1008F800047B704780B483B000AF786000BF0C37CA
:10090800BD465DF8047B704780B485B000AF786061
:1009180039600023BB607B6893F83C30012B01D120
:10092800022305E17B68012283F83C203B681B68B1
:10093800092B25D97B681B68D9683B681B689BB263
:100948001A4613465B0013441E3B072202FA03F3C0
:10095800DA437B681B680A40DA607B681B68D968E1
:100968003B689A683B681B689BB2184603465B0065
:1009780003441E3B9A407B681B680A43DA6022E006
:100988007B681B6819693B681B689BB21A4613464B
:100998005B001344072202FA03F3DA437B681B68FF
:1009A8000A401A617B681B6819693B689A683B684A
:1009B8001B689BB2184603465B0003449A407B6859
:1009C8001B680A431A613B685B68062B24D87B685E
:1009D8001B68596B3B685A6813469B001344053BD8
:1009E8001F2202FA03F3DA437B681B680A405A6342
:1009F8007B681B68596B3B681B689BB218463B6851
:100A08005A6813469B001344053B00FA03F27B68BF
:100A18001B680A435A634CE03B685B680C2B24D87C
:100A28007B681B68196B3B685A6813469B00134424
:100A3800233B1F2202FA03F3DA437B681B680A4050
:100A48001A637B681B68196B3B681B689BB2184666
:100A58003B685A6813469B001344233B00FA03F291
:100A68007B681B680A431A6323E07B681B68D96AA2
:100A78003B685A6813469B001344413B1F2202FA05
:100A880003F3DA437B681B680A40DA627B681B68F9
:100A9800D96A3B681B689BB218463B685A6813467C
:100AA8009B001344413B00FA03F27B681B680A432E
:100AB800DA62224BFB607B681B68214A934209D1AA
:100AC8003B681B68122B05D1FB685B6843F4800206
:100AD800FB685A607B681B68194A934223D13B68BC
:100AE8001B68102B03D03B681B68112B1BD1FB68BC
:100AF8005B6843F40002FB685A603B681B68102B74
:100B080011D1104B1B68104AA2FB03239A0C134601
:100B18009B0013445B00BB6002E0BB68013BBB6009
:100B2800BB68002BF9D17B68002283F83C200023A6
:100B380018461437BD465DF8047B70470023014012
:100B4800002001400800002083DE1B4380B485B0EC
:100B580000AF7860794BFB60FB685B6823F4403238
:100B6800FB685A60FB685A687B685B681A43FB68D5
:100B78005A607B681B685A687B681B6822F480721D
:100B88005A607B681B6859687B681B691A027B6816
:100B98001B680A435A607B681B685A687B681B6835
:100BA80022F040725A607B681B6859687B689A68B3
:100BB8007B681B680A435A607B681B689A687B6875
:100BC8001B6822F400629A607B681B6899687B68DE
:100BD800DA687B681B680A439A607B689B6A584A94
:100BE800934222D07B681B689A687B681B6822F056
:100BF80070629A607B681B6899687B689A6A7B68F0
:100C08001B680A439A607B681B689A687B681B6844
:100C180022F040529A607B681B6899687B68DA6AA0
:100C28007B681B680A439A600FE07B681B689A68B8
:100C38007B681B6822F070629A607B681B689A6800
:100C48007B681B6822F040529A607B681B689A6830
:100C58007B681B6822F002029A607B681B689968AF
:100C68007B681B7E5A007B681B680A439A607B6816
:100C780093F82030002B1BD07B681B685A687B6870
:100C88001B6842F400625A607B681B685A687B687C
:100C98001B6822F460425A607B681B6859687B684D
:100CA8005B6A013B5A037B681B680A435A6007E08A
:100CB8007B681B685A687B681B6822F400625A606C
:100CC8007B681B68DA6A7B681B6822F47002DA6248
:100CD8007B681B68D96A7B68DB69013B1A057B68FE
:100CE8001B680A43DA627B681B689A687B681B6822
:100CF80022F400729A607B681B6899687B6893F895
:100D080030305A027B681B680A439A607B681B680C
:100D18009A687B681B6822F480629A607B681B680B
:100D280099687B685B699A027B681B680A439A60CA
:100D380000BF1437BD465DF8047B704700230140AF
:100D48000100000F80B584B000AF78607B689B6BB2
:100D5800FB60FB681B6C03F05003002B3CD1FB6865
:100D68001B6C43F40072FB681A64FB681B689B6881
:100D780003F04053002B2BD1FB681B7E002B27D19F
:100D8800FB681B68DB6A03F47003002B06D0FB6862
:100D98001B689B6803F48063002B19D1FB681B68F0
:100DA8005A68FB681B6822F020025A60FB681B6CBB
:100DB80023F48072FB681A64FB681B6C03F480538D
:100DC800002B05D1FB681B6C43F00102FB681A6419
:100DD800F868FFF77BFD0EE0FB681B6C03F010035F
:100DE800002B03D0F868FFF785FD04E0FB689B6BD8
:100DF800DB6C7868984700BF1037BD4680BD80B56A
:100E080084B000AF78607B689B6BFB60F868FFF785
:100E180067FD00BF1037BD4680BD80B584B000AF08
:100E280078607B689B6BFB60FB6840221A64FB68F8
:100E38005B6C43F00402FB685A64F868FFF75AFDDC
:100E480000BF1037BD4680BD80B485B000AF786064
:100E58007B6803F00703FB600C4BDB68BB60BA6878
:100E68004FF6FF031340BB60FB681A02BB681343CD
:100E780043F0BF6343F40033BB60044ABB68D360EC
:100E880000BF1437BD465DF8047B704700ED00E0F5
:100E980080B400AF044BDB681B0A03F00703184655
:100EA800BD465DF8047B704700ED00E080B483B078
:100EB80000AF03463960FB7197F90730002B0ADB56
:100EC8003B68DAB20C4997F907301201D2B20B44E9
:100ED80083F800230AE03B68DAB20849FB7903F09B
:100EE8000F03043B1201D2B20B441A7600BF0C3731
:100EF800BD465DF8047B704700E100E000ED00E0CE
:100F080080B489B000AFF860B9607A60FB6803F01C
:100F18000703FB61FB69C3F10703042B28BF042304
:100F2800BB61FB690433062B02D9FB69033B00E074
:100F380000237B614FF0FF32BB6902FA03F3DA4307
:100F4800BB681A407B699A404FF0FF317B6901FA10
:100F580003F3D9437B680B40134318462437BD4637
:100F68005DF8047B7047000080B582B000AF786000
:100F78007B68013BB3F1807F01D301230FE00A4A6C
:100F88007B68013B53600F214FF0FF30FFF78EFF66
:100F9800054B00229A60044B07221A60002318466A
:100FA8000837BD4680BD00BF10E000E080B582B0C4
:100FB80000AF78607868FFF747FF00BF0837BD4685
:100FC80080BD80B586B000AF0346B9607A60FB7318
:100FD80000237B61FFF75CFF78617A68B9687869FC
:100FE800FFF78EFF024697F90F3011461846FFF7B4
:100FF8005DFF00BF1837BD4680BD80B582B000AF29
:1010080078607868FFF7B0FF034618460837BD4692
:1010180080BD80B500AF00F002F800BF80BD80B48D
:1010280000AF00BFBD465DF8047B704780B586B051
:1010380000AF786000237B61FFF7D0FA38617B68E6
:10104800002B01D1012399E07B68002283F834202A
:101058007B68022283F835207B681B681A687B68E6
:101068001B6822F001021A600FE0FFF7B7FA024688
:101078003B69D31A052B08D97B6820225A657B68FF
:10108800032283F83520032378E07B681B681B68FC
:1010980003F00103002BE8D17B681B681B687B61A8
:1010A8007A69384B13407B617B685A687B689B6818
:1010B8001A437B68DB681A437B681B691A437B68A1
:1010C8005B691A437B689B691A437B68DB691A432F
:1010D8007B681B6A13437A6913437B617B685B6A8D
:1010E800042B07D17B68DA6A7B681B6B13437A6928
:1010F80013437B617B681B687A691A607B681B688D
:101108005B697B617B6923F007037B617B685B6AB2
:101118007A6913437B617B685B6A042B17D17B6810
:101128009B6A7A6913437B617B68DB6A002B0ED06C
:10113800786800F05DF90346002B08D07B684022F0
:101148005A657B68012283F83520012316E07B6805
:101158001B687A695A61786800F014F90346FB60E5
:101168007B68DB6D3F229A40FB689A607B680022AF
:101178005A657B68012283F8352000231846183702
:10118800BD4680BD3F8010F080B586B000AFF860E6
:10119800B9607A603B600023FB75FB689B6D3B611F
:1011A800FB6893F83430012B01D1022348E0FB6837
:1011B800012283F83420FB6893F83530DBB2012B29
:1011C80037D1FB68022283F83520FB6800225A6574
:1011D8003B687A68B968F86800F0A6F8FB68DB6DC8
:1011E8003F229A403B699A60FB681B681A68FB6853
:1011F8001B6842F016021A60FB681B685A69FB6894
:101208001B6842F080025A61FB681B6C002B07D0F8
:10121800FB681B681A68FB681B6842F008021A60C2
:10122800FB681B681A68FB681B6842F001021A60B9
:1012380005E0FB68002283F834200223FB75FB7D60
:1012480018461837BD4680BD80B584B000AF7860B9
:101258007B689B6DFB60FFF7C1F9B8607B6893F80A
:101268003530DBB2022B08D07B6880225A657B6858
:10127800002283F83420012352E07B681B681A6837
:101288007B681B6822F016021A607B681B685A6923
:101298007B681B6822F080025A617B681B6C002BFC
:1012A80003D17B689B6C002B07D07B681B681A688E
:1012B8007B681B6822F008021A607B681B681A6842
:1012C8007B681B6822F001021A6013E0FFF786F9B9
:1012D8000246BB68D31A052B0CD97B6820225A65B5
:1012E8007B68002283F834207B68032283F835204A
:1012F800032315E07B681B681B6803F00103002BC0
:10130800E4D17B68DB6D3F229A40FB689A607B687A
:10131800002283F834207B68012283F835200023DB
:1013280018461037BD4680BD80B485B000AFF86060
:10133800B9607A603B60FB681B681A68FB681B68C9
:1013480022F480221A60FB681B683A685A60FB68BE
:101358009B68402B08D1FB681B687A689A60FB6819
:101368001B68BA68DA6007E0FB681B68BA689A60AD
:10137800FB681B687A68DA6000BF1437BD465DF801
:10138800047B704780B485B000AF78607B681B68C9
:10139800DBB2103B144AA2FB03231B09FB60134A70
:1013A800FB6813441B781A467B68DA65FB68032BD5
:1013B80009D97B681B6823F47F7323F003031A1D84
:1013C8007B689A6507E07B681B6823F47F7323F0CA
:1013D80003037A6893657B689B6D18461437BD468E
:1013E8005DF8047B704700BFABAAAAAAD04E0008DC
:1013F80080B485B000AF78600023FB737B689B6A7C
:10140800BB607B689B69002B1FD1BB68032B55D839
:1014180001A252F823F000BF311400084314000859
:1014280031140008C51400087B68DB6A03F0807378
:10143800002B45D00123FB7342E07B68DB6AB3F1E4
:10144800C07F3FD10123FB733CE07B689B69B3F508
:10145800005F21D1BB68032B36D801A252F823F0D4
:10146800791400087F140008791400089114000802
:101478000123FB732FE07B68DB6A03F08073002B8A
:1014880024D00123FB7321E07B68DB6AB3F1C07FC2
:101498001ED10123FB731BE0BB68022B02D9032B6F
:1014A80003D018E00123FB7315E07B68DB6A03F0C7
:1014B8008073002B0ED00123FB730BE000BF0AE002
:1014C80000BF08E000BF06E000BF04E000BF02E084
:1014D80000BF00E000BFFB7B18461437BD465DF82F
:1014E800047B704780B489B000AF7860396000230E
:1014F8007B6100233B610023BB610023FB614DE15D
:101508000122FB6902FA03F37B613B681B687A6975
:1015180013403B613A697B699A4240F03C813B68E1
:101528005B68022B03D03B685B68122B23D1FB69F5
:10153800DA087B68083253F82230BB61FB6903F094
:1015480007039B000F2202FA03F3DB43BA69134037
:10155800BB613B681A69FB6903F007039B0002FA49
:1015680003F3BA691343BB61FB69DA087B68083285
:10157800B96943F822107B681B68BB61FB695B0093
:10158800032202FA03F3DB43BA691340BB613B68E9
:101598005B6803F00302FB695B0002FA03F3BA69B4
:1015A8001343BB617B68BA691A603B685B68012BAF
:1015B8000BD03B685B68022B07D03B685B68112B3C
:1015C80003D03B685B68122B30D17B689B68BB619A
:1015D800FB695B00032202FA03F3DB43BA69134099
:1015E800BB613B68DA68FB695B0002FA03F3BA691E
:1015F8001343BB617B68BA699A607B685B68BB61AF
:101608000122FB6902FA03F3DB43BA691340BB61A9
:101618003B685B681B0903F00102FB6902FA03F3EC
:10162800BA691343BB617B68BA695A607B68DB6837
:10163800BB61FB695B00032202FA03F3DB43BA696F
:101648001340BB613B689A68FB695B0002FA03F3CD
:10165800BA691343BB617B68BA69DA603B685B6847
:1016680003F08053002B00F096800023FB60504B62
:101678005B6C4F4A43F4804353644D4B5B6C03F4FB
:101688008043FB60FB684B4AFB699B08023352F8B6
:101698002330BB61FB6903F003039B000F2202FAAE
:1016A80003F3DB43BA691340BB617B68424A934248
:1016B8000DD07B68414A934207D07B68404A9342E9
:1016C80001D1022304E0072302E0012300E0002304
:1016D800FA6902F0030292009340BA691343BB61AE
:1016E8003449FB699B080233BA6941F82320354B1A
:1016F8001B68BB613B69DB43BA691340BB613B684C
:101708005B6803F48033002B03D0BA693B69134349
:10171800BB612C4ABB6913602A4B5B68BB613B69A0
:10172800DB43BA691340BB613B685B6803F4003371
:10173800002B03D0BA693B691343BB61214ABB69DB
:101748005360204B9B68BB613B69DB43BA6913401C
:10175800BB613B685B6803F48013002B03D0BA6954
:101768003B691343BB61174ABB699360154BDB6840
:10177800BB613B69DB43BA691340BB613B685B688B
:1017880003F40013002B03D0BA693B691343BB6110
:101798000C4ABB69D360FB690133FB61FB690F2B02
:1017A8007FF6AEAE00BF2437BD465DF8047B7047B8
:1017B80000380240003801400000024000040240A6
:1017C80000080240003C014080B485B000AF78605A
:1017D8000B467B807B681A697B881340002B02D0FC
:1017E8000123FB7301E00023FB73FB7B18461437CE
:1017F800BD465DF8047B704780B483B000AF786065
:101808000B467B8013467B707B78002B03D07A884D
:101818007B689A6103E07B881A047B689A6100BF41
:101828000C37BD465DF8047B7047000080B584B076
:1018380000AF78607B68002B01D101230FE17B6842
:1018480093F83D30DBB2002B06D17B68002283F889
:101858003C20786800F012F97B68242283F83D2048
:101868007B681B681A687B681B6822F001021A6093
:1018780001F024F9F8607B685B687B4A934207D8DB
:10188800FB687A4A934294BF01230023DBB206E047
:10189800FB68774A934294BF01230023DBB2002BF5
:1018A80001D00123DBE0FB68724AA2FB03239B0CF7
:1018B800BB607B681B685B6823F03F017B681B6823
:1018C800BA680A435A607B681B681B6A23F03F01A9
:1018D8007B685B68644A934202D8BB68013309E0BD
:1018E800BB684FF4967202FB03F3634AA2FB03231F
:1018F8009B0901337A6812680B4313627B681B6883
:10190800DB6923F44F4222F0FF027B685B6856498B
:101918008B420DD8FB68591E7B685B685B00B1FB86
:10192800F3F30133C3F30B03042B38BF04234FE055
:101938007B689B68002B11D1FB68581E7B6859682F
:101948000B465B000B44B0FBF3F30133C3F30B030B
:10195800002B0CBF01230023DBB212E0FB68581EEA
:101968007B6859680B469B000B4499000B44B0FBFD
:10197800F3F30133C3F30B03002B0CBF0123002344
:10198800DBB2002B01D0012322E07B689B68002B8F
:101998000ED1FB68581E7B6859680B465B000B44E8
:1019A800B0FBF3F30133C3F30B0343F400430FE03D
:1019B800FB68581E7B6859680B469B000B449900CE
:1019C8000B44B0FBF3F30133C3F30B0343F440437D
:1019D800796809681343CB617B681B681B6823F02F
:1019E800C0017B68DA697B681B6A1A437B681B68DD
:1019F8000A431A607B681B689B6823F4034323F03F
:101A0800FF037A6811697A68D26811437A681268A4
:101A18000B4393607B681B68DB6823F0FF017B68DE
:101A28005A697B689B691A437B681B680A43DA60BA
:101A38007B681B681A687B681B6842F001021A60A1
:101A48007B6800221A647B68202283F83D207B682B
:101A580000221A637B68002283F83E200023184680
:101A68001037BD4680BD00BFA08601007F841E00E0
:101A7800FF083D0083DE1B43D34D621080B483B062
:101A880000AF786000BF0C37BD465DF8047B704737
:101A980080B588B002AFF8607A601A460B467B8141
:101AA80013463B81FEF79AFD7861FB6893F83D3059
:101AB800DBB2202B40F0E0807B69009319230122E0
:101AC8007049F86800F034FC0346002B01D002236B
:101AD800D3E0FB6893F83C30012B01D10223CCE022
:101AE800FB68012283F83C20FB681B681B6803F035
:101AF8000103012B07D0FB681B681A68FB681B6889
:101B080042F001021A60FB681B681A68FB681B68D0
:101B180022F400621A60FB68212283F83D20FB68EA
:101B2800102283F83E20FB6800221A64FB687A685A
:101B38005A62FB683A895A85FB685B8D9AB2FB68E2
:101B48001A85FB68504ADA6279897B693A6AF868CB
:101B580000F0C2FA0346002B01D001238DE00023D8
:101B68003B61FB681B685B693B61FB681B689B69A1
:101B78003B613B6966E07A69396AF86800F0AEFC57
:101B88000346002B0DD0FB681B6C042B07D1FB68A8
:101B98001B681A68FB681B6842F400721A6001230C
:101BA8006BE0FB685B6A1A78FB681B681A61FB6864
:101BB8005B6A5A1CFB685A62FB685B8D9BB2013BEF
:101BC8009AB2FB685A85FB681B8D013B9AB2FB6889
:101BD8001A85FB681B685B6903F00403042B1BD19F
:101BE800FB681B8D002B17D0FB685B6A1A78FB68B3
:101BF8001B681A61FB685B6A5A1CFB685A62FB68BF
:101C08005B8D9BB2013B9AB2FB685A85FB681B8DC2
:101C1800013B9AB2FB681A857A69396AF86800F05C
:101C28009EFC0346002B0DD0FB681B6C042B07D1D0
:101C3800FB681B681A68FB681B6842F400721A602C
:101C480001231AE0FB681B8D002B94D1FB681B68ED
:101C58001A68FB681B6842F400721A60FB6820224D
:101C680083F83D20FB68002283F83E20FB680022B1
:101C780083F83C20002300E0022318461837BD46AD
:101C880080BD00BF020010000000FFFF80B58CB0CF
:101C980002AFF8607A601A460B467B8113463B8197
:101CA800FEF79CFC7862FB6893F83D30DBB2202B92
:101CB80040F00B827B6A0093192301227C49F86863
:101CC80000F036FB0346002B01D00223FEE1FB683F
:101CD80093F83C30012B01D10223F7E1FB68012284
:101CE80083F83C20FB681B681B6803F00103012B89
:101CF80007D0FB681B681A68FB681B6842F0010282
:101D08001A60FB681B681A68FB681B6822F400628B
:101D18001A60FB68222283F83D20FB68102283F8B2
:101D28003E20FB6800221A64FB687A685A62FB68E6
:101D38003A895A85FB685B8D9AB2FB681A85FB68FD
:101D48005C4ADA6279897B6A3A6BF86800F03AFA99
:101D58000346002B01D00123B8E1FB681B8D002B43
:101D680013D100233B62FB681B685B693B62FB681D
:101D78001B689B693B623B6AFB681B681A68FB68C7
:101D88001B6842F400721A608CE1FB681B8D012B02
:101D98001BD1FB681B681A68FB681B6822F4806209
:101DA8001A600023FB61FB681B685B69FB61FB68C9
:101DB8001B689B69FB61FB69FB681B681A68FB6809
:101DC8001B6842F400721A606CE1FB681B8D022BE1
:101DD8001BD1FB681B681A68FB681B6822F48062C9
:101DE8001A60FB681B681A68FB681B6842F400628B
:101DF8001A600023BB61FB681B685B69BB61FB68F9
:101E08001B689B69BB61BB694CE1FB681B681A686E
:101E1800FB681B6842F480621A6000237B61FB68E0
:101E28001B685B697B61FB681B689B697B617B69DD
:101E380038E1FB681B8D032B00F2F180FB681B8DDA
:101E4800012B23D17A6A396BF86800F0C9FB034685
:101E5800002B01D0012339E1FB681B681A69FB6874
:101E68005B6AD2B21A70FB685B6A5A1CFB685A62DA
:101E7800FB681B8D013B9AB2FB681A85FB685B8D7A
:101E88009BB2013B9AB2FB685A850BE1FB681B8D3C
:101E9800022B4ED17B6A00933B6B00220649F868FF
:101EA80000F046FA0346002B08D001230EE100BFDC
:101EB800020010000000FFFF04000100FB681B681F
:101EC8001A68FB681B6842F400721A60FB681B689A
:101ED8001A69FB685B6AD2B21A70FB685B6A5A1CA3
:101EE800FB685A62FB681B8D013B9AB2FB681A8536
:101EF800FB685B8D9BB2013B9AB2FB685A85FB6815
:101F08001B681A69FB685B6AD2B21A70FB685B6A65
:101F18005A1CFB685A62FB681B8D013B9AB2FB682E
:101F28001A85FB685B8D9BB2013B9AB2FB685A85A8
:101F3800B8E07B6A00933B6B00226649F86800F0C2
:101F4800F7F90346002B01D00123BFE0FB681B68AB
:101F58001A68FB681B6822F480621A60FB681B68B9
:101F68001A69FB685B6AD2B21A70FB685B6A5A1C12
:101F7800FB685A62FB681B8D013B9AB2FB681A85A5
:101F8800FB685B8D9BB2013B9AB2FB685A857B6A02
:101F980000933B6B00224F49F86800F0C9F90346EB
:101FA800002B01D0012391E0FB681B681A68FB68CD
:101FB8001B6842F400721A60FB681B681A69FB68A8
:101FC8005B6AD2B21A70FB685B6A5A1CFB685A6279
:101FD800FB681B8D013B9AB2FB681A85FB685B8D19
:101FE8009BB2013B9AB2FB685A85FB681B681A6969
:101FF800FB685B6AD2B21A70FB685B6A5A1CFB68A2
:102008005A62FB681B8D013B9AB2FB681A85FB6814
:102018005B8D9BB2013B9AB2FB685A8542E07A6AB3
:10202800396BF86800F0DCFA0346002B01D0012375
:102038004CE0FB681B681A69FB685B6AD2B21A70CD
:10204800FB685B6A5A1CFB685A62FB681B8D013B84
:102058009AB2FB681A85FB685B8D9BB2013B9AB20A
:10206800FB685A85FB681B685B6903F00403042B53
:1020780018D1FB681B681A69FB685B6AD2B21A70D0
:10208800FB685B6A5A1CFB685A62FB681B8D013B44
:102098009AB2FB681A85FB685B8D9BB2013B9AB2CA
:1020A800FB685A85FB681B8D002B7FF4C2AEFB686A
:1020B800202283F83D20FB68002283F83E20FB683D
:1020C800002283F83C20002300E00223184628372A
:1020D800BD4680BD0400010080B588B002AFF8603D
:1020E8007A603B600B467B81FB68DB6A7B617B69BE
:1020F800082B06D07B69012B03D07B6913F5803F41
:1021080008D1FB681B681A68FB681B6842F4807278
:102118001A600BE0FB681B6B122B07D1FB681B686E
:102128001A68FB681B6842F480721A603B68009367
:102138007B6800224FF00111F86800F0F9F80346B7
:10214800002B01D0012335E0FB681B69B3F5804FF4
:1021580008D17B89DBB21A46FB681B6802F0FE02D5
:102168001A611BE07B89DB11DBB203F00603DBB2EB
:1021780063F00F03DAB2FB681B681A613B687A6880
:102188000E49F86800F02BF90346002B01D0012313
:1021980010E07B89DAB2FB681B681A613B687A68D1
:1021A8000749F86800F01BF90346002B01D001230A
:1021B80000E0002318461837BD4680BD080001001E
:1021C8000200010080B588B002AFF8607A603B6019
:1021D8000B467B81FB68DB6A7B61FB681B681A68BE
:1021E800FB681B6842F480621A607B69082B06D082
:1021F8007B69012B03D07B6913F5803F08D1FB680D
:102208001B681A68FB681B6842F480721A600BE04E
:10221800FB681B6B112B07D1FB681B681A68FB68EE
:102228001B6842F480721A603B6800937B68002246
:102238004FF00111F86800F07BF80346002B01D03D
:1022480001236DE0FB681B69B3F5804F08D17B89DA
:10225800DBB243F00103DAB2FB681B681A6153E092
:102268007B89DB11DBB203F00603DBB263F00F03FB
:10227800DAB2FB681B681A613B687A682A49F86811
:1022880000F0ADF80346002B01D0012348E07B891C
:10229800DAB2FB681B681A613B687A682349F868F8
:1022A80000F09DF80346002B01D0012338E00023FD
:1022B8003B61FB681B685B693B61FB681B689B694A
:1022C8003B613B69FB681B681A68FB681B6842F442
:1022D80080721A603B6800937B6800224FF00111FE
:1022E800F86800F025F80346002B01D0012317E019
:1022F8007B89DB11DBB203F00603DBB263F00E036C
:10230800DAB2FB681B681A613B687A680749F868A3
:1023180000F065F80346002B01D0012300E00023FC
:1023280018461837BD4680BD0800010002000100AC
:1023380080B584B000AFF860B9603B601346FB71AC
:1023480025E03B68B3F1FF3F21D0FEF747F902468D
:10235800BB69D31A3A689A4202D33B68002B16D15C
:10236800FB6800221A63FB68202283F83D20FB6883
:10237800002283F83E20FB681B6C43F02002FB68B8
:102388001A64FB68002283F83C20012323E0BB6821
:102398001B0CDBB2012B0DD1FB681B685B69DA43B0
:1023A800BB6813409BB2002B0CBF01230023DBB298
:1023B8001A460CE0FB681B689B69DA43BB6813404C
:1023C8009BB2002B0CBF01230023DBB21A46FB791A
:1023D8009A42B6D0002318461037BD4680BD80B556
:1023E80084B000AFF860B9607A603B6051E0FB6888
:1023F8001B685B6903F48063B3F5806F23D1FB68C6
:102408001B681A68FB681B6842F400721A60FB6854
:102418001B686FF480625A61FB6800221A63FB68CC
:10242800202283F83D20FB68002283F83E20FB68C9
:102438001B6C43F00402FB681A64FB68002283F8F3
:102448003C20012346E07B68B3F1FF3F21D0FEF733
:10245800C5F802463B68D31A7A689A4202D37B6869
:10246800002B16D1FB6800221A63FB68202283F830
:102478003D20FB68002283F83E20FB681B6C43F07C
:102488002002FB681A64FB68002283F83C200123C1
:1024980020E0BB681B0CDBB2012B0CD1FB681B686E
:1024A8005B69DA43BB6813409BB2002B14BF01235E
:1024B8000023DBB20BE0FB681B689B69DA43BB684F
:1024C80013409BB2002B14BF01230023DBB2002B67
:1024D8008DD1002318461037BD4680BD80B584B025
:1024E80000AFF860B9607A602DE0F86800F0CEF8C7
:1024F8000346002B01D001232DE0BB68B3F1FF3F59
:1025080021D0FEF76BF802467B68D31ABA689A4264
:1025180002D3BB68002B16D1FB6800221A63FB6844
:10252800202283F83D20FB68002283F83E20FB68C8
:102538001B6C43F02002FB681A64FB68002283F8D6
:102548003C20012307E0FB681B685B6903F08003FC
:10255800802BCAD1002318461037BD4680BD80B5F0
:1025680084B000AFF860B9607A602DE0F86800F0D8
:102578008DF80346002B01D001232DE0BB68B3F191
:10258800FF3F21D0FEF72AF802467B68D31ABA68C3
:102598009A4202D3BB68002B16D1FB6800221A634B
:1025A800FB68202283F83D20FB68002283F83E2048
:1025B800FB681B6C43F02002FB681A64FB6800226E
:1025C80083F83C20012307E0FB681B685B6903F084
:1025D8000403042BCAD1002318461037BD4680BD1A
:1025E80080B584B000AFF860B9607A6042E0FB68FB
:1025F8001B685B6903F01003102B19D1FB681B687B
:102608006FF010025A61FB6800221A63FB682022EF
:1026180083F83D20FB68002283F83E20FB681A6C93
:10262800FB681A64FB68002283F83C20012329E038
:10263800FDF7D4FF02467B68D31ABA689A4202D3E0
:10264800BB68002B16D1FB6800221A63FB682022A6
:1026580083F83D20FB68002283F83E20FB681B6C52
:1026680043F02002FB681A64FB68002283F83C20D0
:10267800012307E0FB681B685B6903F04003402BFC
:10268800B5D1002318461037BD4680BD80B483B04D
:1026980000AF78607B681B685B6903F48063B3F5FF
:1026A800806F1BD17B681B686FF480625A617B68FE
:1026B80000221A637B68202283F83D207B68002271
:1026C80083F83E207B681B6C43F004027B681A6425
:1026D8007B68002283F83C20012300E00023184691
:1026E8000C37BD465DF8047B704780B584B000AFF9
:1026F80078607B68002B01D101232BE07B681B6885
:102708004CF6CC421A607B681B6845F255521A6039
:102718007B681B687A6852685A607B681B687A68AD
:1027280092689A60FDF75AFFF86008E0FDF756FFD7
:102738000246FB68D31A302B01D903230AE07B68D1
:102748001B68DB68002BF1D17B681B684AF6AA225C
:102758001A60002318461037BD4680BD80B483B088
:1027680000AF78607B681B684AF6AA221A600023CB
:1027780018460C37BD465DF8047B704780B584B0B9
:1027880000AF786039607B68002B01D10123CAE073
:10279800674B1B6803F00F033A689A420CD9644BE5
:1027A8003A68D2B21A70624B1B6803F00F033A689A
:1027B8009A4201D00123B6E07B681B6803F002034C
:1027C800002B20D07B681B6803F00403002B05D086
:1027D800584B9B68574A43F4E05393607B681B68E7
:1027E80003F00803002B05D0524B9B68514A43F471
:1027F800604393604F4B9B6823F0F0027B689B68B3
:102808004C4913438B607B681B6803F00103002B62
:1028180044D07B685B68012B07D1464B1B6803F4E7
:102828000033002B19D101237DE07B685B68022B04
:1028380003D07B685B68032B07D13E4B1B6803F012
:102848000073002B09D101236DE03A4B1B6803F09C
:102858000203002B01D1012365E0364B9B6823F06E
:1028680003027B685B68334913438B60FDF7B6FE50
:10287800F8600AE0FDF7B2FE0246FB68D31A41F29F
:102888008832934201D903234DE02A4B9B6803F019
:102898000C027B685B689B009A42EBD1244B1B6857
:1028A80003F00F033A689A420CD2214B3A68D2B22D
:1028B8001A701F4B1B6803F00F033A689A4201D045
:1028C800012330E07B681B6803F00403002B08D069
:1028D800184B9B6823F4E0527B68DB681549134367
:1028E8008B607B681B6803F00803002B09D0114B31
:1028F8009B6823F460427B681B69DB000D49134326
:102908008B6000F01DF801460A4B9B681B0903F019
:102918000F03094AD35C21FA03F3084A1360002025
:10292800FDF718FE002318461037BD4680BD00BFCE
:10293800003C024000380240D84F00080800002040
:10294800F0B585B000AF00237B600023FB60002357
:102958003B600023BB60504B9B6803F00C03042BC7
:1029680007D0082B08D0002B40F08D804B4BBB6064
:102978008CE04B4BBB6089E0474B5B6803F03F033F
:102988007B60454B5B6803F48003002B23D0424BEC
:102998005B689B094FF0000440F2FF114FF0000202
:1029A80003EA010504EA02063D4A02FB06F1002299
:1029B80002FB05F20A443A49A5FB010153181946DE
:1029C8007B684FF000041A462346FDF719FC0346BE
:1029D8000C46FB6049E0304B5B689B094FF00004F4
:1029E80040F2FF114FF0000203EA010504EA020673
:1029F800294632464FF000034FF00004540144EAE0
:102A0800D1644B0119462246491B62EB06024FF07E
:102A180000034FF00004940144EA91648B015B1AAF
:102A280064EB02044FF000014FF00002E20042EABA
:102A38005372D9000B4614465B1944EB06044FF059
:102A480000014FF00002A20242EA935299020B469B
:102A58001446184621467B684FF000041A46234660
:102A6800FDF7CEFB03460C46FB600B4B5B681B0C6B
:102A780003F0030301335B003B60FA683B68B2FB79
:102A8800F3F3BB6002E0054BBB6000BFBB681846B0
:102A98001437BD46F0BD00BF003802400024F400E2
:102AA80040787D0180B400AF034B1B681846BD46D3
:102AB8005DF8047B704700BF0800002080B500AFB8
:102AC800FFF7F0FF0146054B9B689B0A03F00703DD
:102AD800034AD35C21FA03F3184680BD003802404C
:102AE800E84F000880B586B000AF786000233B61EE
:102AF8007B681B6803F00103002B75D0A24B9B6811
:102B080003F00C03042B0CD09F4B9B6803F00C03C1
:102B1800082B12D19C4B5B6803F48003B3F5800F3C
:102B28000BD1994B1B6803F40033002B5BD07B68F7
:102B38005B68002B57D101230BE27B685B68B3F518
:102B4800803F06D1904B1B688F4A43F48033136053
:102B58001DE07B685B68B3F5A02F0CD18A4B1B681E
:102B6800894A43F480231360874B1B68864A43F4E1
:102B7800803313600BE0844B1B68834A23F4803353
:102B88001360814B1B68804A23F4802313607B68A1
:102B98005B68002B13D0FDF721FD386108E0FDF7D5
:102BA8001DFD02463B69D31A642B01D90323D0E1EA
:102BB800754B1B6803F40033002BF0D014E0FDF7CD
:102BC8000DFD386108E0FDF709FD02463B69D31A9F
:102BD800642B01D90323BCE16B4B1B6803F400335E
:102BE800002BF0D100E000BF7B681B6803F00203F4
:102BF800002B63D0644B9B6803F00C03002B0BD0B5
:102C0800614B9B6803F00C03082B1CD15E4B5B687F
:102C180003F48003002B16D15B4B1B6803F00203FF
:102C2800002B05D07B68DB68012B01D0012390E1E4
:102C3800554B1B6823F0F8027B681B69DB0052497F
:102C480013430B603AE07B68DB68002B20D04F4BC6
:102C580001221A60FDF7C2FC386108E0FDF7BEFCEE
:102C680002463B69D31A022B01D9032371E1464B73
:102C78001B6803F00203002BF0D0434B1B6823F0C2
:102C8800F8027B681B69DB003F4913430B6015E0C2
:102C98003E4B00221A60FDF7A1FC386108E0FDF701
:102CA8009DFC02463B69D31A022B01D9032350E14C
:102CB800354B1B6803F00203002BF0D17B681B68BF
:102CC80003F00803002B30D07B685B69002B16D01B
:102CD8002F4B01221A60FDF781FC386108E0FDF7EF
:102CE8007DFC02463B69D31A022B01D9032330E14C
:102CF800254B5B6F03F00203002BF0D015E0244B4B
:102D080000221A60FDF76AFC386108E0FDF766FCEE
:102D180002463B69D31A022B01D9032319E11A4B46
:102D28005B6F03F00203002BF0D17B681B6803F094
:102D38000403002B00F09F800023FB75124B1B6CD3
:102D480003F08053002B0FD10023FB600E4B1B6C4C
:102D58000D4A43F0805313640B4B1B6C03F08053F4
:102D6800FB60FB680123FB750A4B1B6803F4807347
:102D7800002B20D1074B1B68064A43F4807313606D
:102D8800FDF72CFC386110E0003802400000474293
:102D9800800E474200700040FDF720FC02463B6968
:102DA800D31A022B01D90323D3E06C4B1B6803F41D
:102DB8008073002BF0D07B689B68012B06D1684B91
:102DC8001B6F674A43F0010313671CE07B689B682D
:102DD800052B0CD1624B1B6F614A43F00403136748
:102DE8005F4B1B6F5E4A43F0010313670BE05C4BBC
:102DF8001B6F5B4A23F001031367594B1B6F584A3B
:102E080023F0040313677B689B68002B15D0FDF73C
:102E1800E5FB38610AE0FDF7E1FB02463B69D31A9E
:102E280041F28832934201D9032392E04C4B1B6F45
:102E380003F00203002BEED014E0FDF7CFFB38615E
:102E48000AE0FDF7CBFB02463B69D31A41F2883210
:102E5800934201D903237CE0414B1B6F03F002032B
:102E6800002BEED1FB7D012B05D13D4B1B6C3C4A61
:102E780023F0805313647B689B69002B68D0384B20
:102E88009B6803F00C03082B60D07B689B69022BBE
:102E980045D1344B00221A60FDF7A0FB386108E0E9
:102EA800FDF79CFB02463B69D31A022B01D9032389
:102EB8004FE02B4B1B6803F00073002BF0D17B68AD
:102EC800DA697B681B6A1A437B685B6A9B011A4351
:102ED8007B689B6A5B08013B1B041A437B68DB6ABF
:102EE8001B061A437B681B6B1B071D4913434B606A
:102EF8001C4B01221A60FDF771FB386108E0FDF7F1
:102F08006DFB02463B69D31A022B01D9032320E04B
:102F1800134B1B6803F00073002BF0D018E0114B23
:102F280000221A60FDF75AFB386108E0FDF756FBEE
:102F380002463B69D31A022B01D9032309E0084B47
:102F48001B6803F00073002BF0D101E0012300E0BF
:102F5800002318461837BD4680BD00BF00700040EA
:102F6800003802406000474280B582B000AF786008
:102F78007B68002B01D1012356E07B6800229A620E
:102F88007B6893F85130DBB2002B06D17B680022B6
:102F980083F85020786800F04BF87B68022283F8A9
:102FA80051207B681B681A687B681B6822F0400206
:102FB8001A607B685A687B689B681A437B68DB6881
:102FC8001A437B681B691A437B685B691A437B68F1
:102FD8009B6903F400731A437B68DB691A437B68B7
:102FE8001B6A42EA03017B689A6A7B681B680A438A
:102FF8001A607B689B691B0C03F004017B685A6AA2
:103008007B681B680A435A607B681B68DA697B68BF
:103018001B6822F40062DA617B6800225A657B68CB
:10302800012283F85120002318460837BD4680BD89
:1030380080B483B000AF786000BF0C37BD465DF840
:10304800047B704780B588B000AFF860B9603B601A
:103058001346FB800023FB77FB6893F85030012B65
:1030680001D102231EE1FB68012283F85020FDF7FD
:10307800B5FAB861FB88FB82FB6893F85130DBB284
:10308800012B02D00223FB7703E1BB68002B02D09F
:10309800FB88002B02D10123FB77FAE0FB680322AF
:1030A80083F85120FB6800225A65FB68BA681A63E6
:1030B800FB68FA889A86FB68FA88DA86FB68002239
:1030C8009A63FB6800229A87FB680022DA87FB680C
:1030D80000225A64FB6800221A64FB689B68B3F5F7
:1030E800004F07D1FB681B681A68FB681B6842F42D
:1030F80080421A60FB681B681B6803F04003402B82
:1031080007D0FB681B681A68FB681B6842F040021E
:103118001A60FB68DB68B3F5006F4BD1FB685B682E
:10312800002B02D0FB8A012B3ED1FB681B6B1A884F
:10313800FB681B68DA60FB681B6B9A1CFB681A63E8
:10314800FB68DB8E9BB2013B9AB2FB68DA862BE008
:10315800FB681B689B6803F00203022B12D1FB6813
:103168001B6B1A88FB681B68DA60FB681B6B9A1C70
:10317800FB681A63FB68DB8E9BB2013B9AB2FB6863
:10318800DA8611E0FDF72AFA0246BB69D31A3A68D3
:103198009A4203D83B68B3F1FF3F02D13B68002B4A
:1031A80002D10323FB7774E0FB68DB8E9BB2002B14
:1031B800CED14CE0FB685B68002B02D0FB8A012B68
:1031C80040D1FB681A6BFB681B680C3312781A70C5
:1031D800FB681B6B5A1CFB681A63FB68DB8E9BB28F
:1031E800013B9AB2FB68DA862CE0FB681B689B6897
:1031F80003F00203022B13D1FB681A6BFB681B68F0
:103208000C3312781A70FB681B6B5A1CFB681A6324
:10321800FB68DB8E9BB2013B9AB2FB68DA8611E051
:10322800FDF7DCF90246BB69D31A3A689A4203D81B
:103238003B68B3F1FF3F02D13B68002B02D1032367
:10324800FB7726E0FB68DB8E9BB2002BCDD1BA69F9
:103258003968F86800F094F80346002B02D0FB6840
:1032680020225A65FB689B68002B0AD100233B612A
:10327800FB681B68DB683B61FB681B689B683B61FC
:103288003B69FB685B6D002B02D00123FB7700E0F4
:1032980000BFFB68012283F85120FB68002283F8F5
:1032A8005020FB7F18462037BD4680BD80B584B0CE
:1032B80000AFF860B9603B601346FB714CE03B68B7
:1032C800B3F1FF3F48D0FDF789F90246BB69D31A2D
:1032D8003A689A4202D93B68002B3DD1FB681B68CB
:1032E8005A68FB681B6822F0E0025A60FB685B685A
:1032F800B3F5827F11D1FB689B68B3F5004F04D00A
:10330800FB689B68B3F5806F07D1FB681B681A6878
:10331800FB681B6822F040021A60FB689B6AB3F5E1
:10332800005F0FD1FB681B681A68FB681B6822F4F2
:1033380000521A60FB681B681A68FB681B6842F435
:1033480000521A60FB68012283F85120FB680022B2
:1033580083F8502003230FE0FB681B689A68BB685A
:103368001340BA689A420CBF01230023DBB21A4605
:10337800FB799A42A3D1002318461037BD4680BD79
:1033880080B588B002AFF860B9607A601B4B1B68E3
:103398001B4AA2FB03235B0D4FF47A7202FB03F373
:1033A8007B61FB685B68B3F5827F12D17B68009311
:1033B800BB6800228021F868FFF778FF0346002BDE
:1033C80016D0FB685B6D43F02002FB685A65032347
:1033D8000FE07B69002B0AD07B69013B7B61FB68AE
:1033E8001B689B6803F08003802BF2D000E000BFCD
:1033F800002318461837BD4680BD00BF08000020CE
:10340800819F5E1680B400AFBFF34F8F054BDB681A
:1034180003F4E0620349044B1343CB60BFF34F8FBF
:1034280000BFFDE700ED00E00400FA0580B588B0B4
:1034380000AF07F10C0300221A605A609A60DA6044
:103448001A610023BB60374B5B6C364A43F4801328
:103458005364344B5B6C03F48013BB60BB6800237C
:103468007B60304B1B6B2F4A43F0020313632D4BD9
:103478001B6B03F002037B607B68012202212A4850
:10348800FEF7BAF90223FB6001233B6100237B614D
:103498000323BB6107F10C0319462348FEF722F802
:1034A80040F20113FB6002233B6100237B6103238D
:1034B800BB610623FB6107F10C0319461A48FEF7A6
:1034C80011F81A4B1A4A1A60184B4FF482725A6054
:1034D800164B00229A60154B4FF40062DA60134BCA
:1034E80002221A61114B00225A61104B4FF40072EC
:1034F8009A610E4B0022DA610C4B00221A620B4BC8
:1035080000225A62094B00229A620848FFF72CFDF4
:103518000346002B01D0FFF775FF00BF2037BD46DB
:1035280080BD00BF00380240000402403000002087
:103538000050014090B585B000AF044608461146DA
:103548001A462346FB800346BB800B467B80134606
:103558003B80002202214148FEF74EF9B7F90630B8
:10356800C3F30B031BB243F480531BB29BB2FB8122
:1035780007F10E010A2301223948FFF763FD0346CC
:10358800002B01D0FFF73EFF012202213348FEF74E
:1035980033F9002202213148FEF72EF9B7F9043039
:1035A800C3F30B031BB243F4A0431BB29BB2FB81D2
:1035B80007F10E010A2301222948FFF743FD0346BC
:1035C800002B01D0FFF71EFF012202212348FEF73E
:1035D80013F9002202212148FEF70EF9B7F902304B
:1035E800C3F30B031AB21F4B13431BB29BB2FB81ED
:1035F80007F10E010A2301221948FFF723FD0346AC
:10360800002B01D0FFF7FEFE012202211348FEF72E
:10361800F3F8002202211148FEF7EEF8B7F900305E
:10362800C3F30B031AB2104B13431BB29BB2FB81BB
:1036380007F10E010A2301220948FFF703FD03469B
:10364800002B01D0FFF7DEFE012202210348FEF71E
:10365800D3F800BF1437BD4690BD00BF0004024038
:10366800300000200090FFFF00D0FFFF80B400AFC3
:10367800BFF34F8F054BDB6803F4E0620349044B4B
:103688001343CB60BFF34F8F00BFFDE700ED00E0B1
:103698000400FA0580B58AB002AF07F10C030022D6
:1036A8001A605A609A60DA601A6100237B60444BA2
:1036B8001B6B434A43F002031363414B1B6B03F03C
:1036C80002037B607B6800233B603D4B1B6C3C4ADC
:1036D80043F4001313643A4B1B6C03F400133B6070
:1036E8003B68C023FB6012233B6101237B610323FA
:1036F800BB610423FB6107F10C0319463148FDF750
:10370800F1FE314B314A1A602F4B314A5A602E4B29
:1037180000229A602C4B0022DA602B4B4FF4804237
:103728001A61294B00225A61274B00229A61264BC5
:103738000022DA61244B00221A622348FEF776F849
:103748000346002B01D0FFF791FF00233B720023B3
:103758007B7207F108020A230093022340211A48CA
:10376800FEF796F90346002B01D0FFF77FFF0123F0
:103778003B72FF237B7207F108020A23009302239E
:1037880040211148FEF784F90346002B01D0FFF7CA
:103798006DFF0D233B72FF237B7207F108020A239A
:1037A8000093022340210848FEF772F90346002BD4
:1037B80001D0FFF75BFF00BF2037BD4680BD00BFCB
:1037C80000380240000402408800002000540040F5
:1037D800801A060080B586B002AF0346FB71142339
:1037E8003B73FB797B7307F10C020A2300930223D6
:1037F80040210648FEF74CF90346002B01D0FFF79D
:1038080035FF00BF1037BD4680BD00BF88000020CF
:1038180080B584B002AF1323FB71FA1D0A2300930D
:10382800012340210C48FEF733F90346002B01D051
:10383800FFF71CFFFA1D0A230093012340210648C5
:10384800FEF724FA0346002B01D0FFF70FFFFB79A0
:1038580018460837BD4680BD8800002080B586B070
:1038680000AF3B1D00221A605A609A60DA601A6144
:10387800B0237B600023BB600023FB6003233B6114
:103888003B1D19460948FDF72DFE40237B600123A7
:10389800BB600023FB6003233B613B1D19460348C3
:1038A800FDF720FE00BF1837BD4680BD000002406E
:1038B80080B588B000AF7860396007F10803194611
:1038C800786800F0C9F807F1080107F114000A2325
:1038D8000A2200F023F80346FB77FB7F032B01D174
:1038E800002316E0FB7F002B01D0022311E007F133
:1038F80014030921184600F0E9FB0346002B07D002
:1039080007F114031946386800F095FA012300E01E
:10391800022318462037BD4680BD000080B586B01A
:1039280000AFF860B96011461A460B46FB711346A2
:10393800BB71FCF753FE0246BB7913443B6100237D
:10394800FB8207E0FB8AFA68134400221A70FB8A9C
:103958000133FB82FB799BB2FA8A9A42F2D307E0E1
:10396800FCF73CFE02463B69934201D203236CE01C
:10397800384B1B6903F01003002BF1D10023FB82A5
:103988005DE00123BB8254E0FCF728FE02463B6958
:10399800934201D2032358E02E4B1B6903F0100316
:1039A800002B01D0012350E02A4B1B6903F02003B0
:1039B800002BE9D1FB8ABA6813441B781A46BB8AE4
:1039C8001340002B01D0402301E04FF48003214A2B
:1039D80093610FE0FCF702FE02463B69934201D275
:1039E800032332E01B4B1B6903F01003002B01D0AB
:1039F80001232AE0174B1B6903F02003002BE9D0B1
:103A0800144B1B6903F08003002B01D0B98A00E036
:103A18000021FB8AFA6813441B785AB24BB213434D
:103A280059B2FB8AFA681344CAB21A70BB8A5B009F
:103A3800BB82BB8A802BB7D9FB8A0133FB82FB7917
:103A48009BB2FA8A9A429CD3002318461837BD467F
:103A580080BD00BF0000024090B583B000AF786021
:103A680039607B681B68DAB23B681A707B681B6830
:103A78001B0ADAB23B68013302F00F02D2B21A70A5
:103A88003B6801331B785BB27A68127C012A01D14A
:103A9800102200E0002213435AB23B680133D2B22D
:103AA8001A703B6801331B785BB27A68527C012A32
:103AB80001D1202200E0002213435AB23B680133AF
:103AC800D2B21A703B6801331B785BB27A68927C79
:103AD800012A01D1402200E0002213435AB23B6878
:103AE8000133D2B21A703B6801331B785BB27A6833
:103AF800D27C012A02D16FF07F0200E0002213433A
:103B08005AB23B680133D2B21A707B685A683B6874
:103B18000233D2B21A707B685B681B0ADAB23B6860
:103B2800033302F00F02D2B21A703B6803331B78DA
:103B38005BB27A68127D012A01D1102200E00022CE
:103B480013435AB23B680333D2B21A703B6803334B
:103B58001B785BB27A68527D012A01D1202200E0ED
:103B6800002213435AB23B680333D2B21A703B683F
:103B780003331B785BB27A68927D012A01D1402217
:103B880000E0002213435AB23B680333D2B21A70E2
:103B98003B6803331B785BB27A68D27D012A02D175
:103BA8006FF07F0200E0002213435AB23B680333F0
:103BB800D2B21A707B689A683B680433D2B21A7022
:103BC8007B689B681B0ADAB23B68053302F00F0278
:103BD800D2B21A703B6805331B785BB27A68127EE2
:103BE800012A01D1102200E0002213435AB23B6897
:103BF8000533D2B21A703B6805331B785BB27A681A
:103C0800527E012A01D1202200E0002213435AB239
:103C18003B680533D2B21A703B6805331B785BB238
:103C28007A68927E012A01D1402200E000221343E3
:103C38005AB23B680533D2B21A703B6805331B7819
:103C48005BB27A68D27E012A02D16FF07F0200E06F
:103C5800002213435AB23B680533D2B21A707B680C
:103C6800DA683B680633D2B21A707B68DB681B0AD5
:103C7800DAB23B68073302F00F02D2B21A703B681F
:103C880007331B785BB27A68127F012A01D11022B0
:103C980000E0002213435AB23B680733D2B21A70CD
:103CA8003B6807331B785BB27A68527F012A01D1DF
:103CB800202200E0002213435AB23B680733D2B2F5
:103CC8001A703B6807331B785BB27A68927F012AC7
:103CD80001D1402200E0002213435AB23B68073367
:103CE800D2B21A703B6807331B785BB27A68D27F0E
:103CF800012A02D16FF07F0200E0002213435AB27A
:103D08003B680733D2B21A707B6893F82030012BD6
:103D18000CBF01230023DAB23B6808331A703B68F2
:103D280008331B785BB27A6892F82120012A01D106
:103D3800022200E0002213435AB23B680833D2B291
:103D48001A703B6808331B785BB27A6892F82220B5
:103D5800012A01D1042200E0002213435AB23B6831
:103D68000833D2B21A703B6808331B785BB27A68A2
:103D780092F82320012A01D1082200E000221343EF
:103D88005AB23B680833D2B21A703B6808331B78C2
:103D98005BB27A6892F82420012A01D1102200E04F
:103DA800002213435AB23B680833D2B21A703B68F8
:103DB80008331B785BB27A6892F82520012A01D172
:103DC800202200E0002213435AB23B680833D2B2E3
:103DD8001A703B6808331B785BB27A6892F8262021
:103DE800012A01D1402200E0002213435AB23B6865
:103DF8000833D2B21A703B6808331B785BB27A6812
:103E080092F82720012A02D16FF07F0200E00022F9
:103E180013435AB23B680833D2B21A703B6803F1B5
:103E280009040921386800F02FF90346237000BF00
:103E38000C37BD4690BD80B483B000AF7860396060
:103E48003B681B781A463B6801331B781B0203F456
:103E5800706313431A467B681A603B6802331B7809
:103E68001A463B6803331B781B0203F47063134341
:103E78001A467B685A603B6804331B781A463B68CD
:103E880005331B781B0203F4706313431A467B68DF
:103E98009A603B6806331B781A463B6807331B78E1
:103EA8001B0203F4706313431A467B68DA603B68AD
:103EB80001331B781B11DBB203F00103DAB27B6814
:103EC8001A743B6801331B785B11DBB203F0010302
:103ED800DAB27B685A743B6801331B789B11DBB2FA
:103EE80003F00103DAB27B689A743B6801331B78EC
:103EF800DB09DAB27B68DA743B6803331B781B1181
:103F0800DBB203F00103DAB27B681A753B6803334E
:103F18001B785B11DBB203F00103DAB27B685A75D8
:103F28003B6803331B789B11DBB203F00103DAB261
:103F38007B689A753B6803331B78DB09DAB27B68C8
:103F4800DA753B6805331B781B11DBB203F00103FC
:103F5800DAB27B681A763B6805331B785B11DBB2F3
:103F680003F00103DAB27B685A763B6805331B78A5
:103F78009B11DBB203F00103DAB27B689A763B68E7
:103F880005331B78DB09DAB27B68DA763B680733DE
:103F98001B781B11DBB203F00103DAB27B681A77D6
:103FA8003B6807331B785B11DBB203F00103DAB21D
:103FB8007B685A773B6807331B789B11DBB203F0A9
:103FC8000103DAB27B689A773B6807331B78DB0911
:103FD800DAB27B68DA773B6808331B7803F00103B1
:103FE800DAB27B6883F820203B6808331B785B10C3
:103FF800DBB203F00103DAB27B6883F821203B6867
:1040080008331B789B10DBB203F00103DAB27B683C
:1040180083F822203B6808331B78DB10DBB203F0FF
:104028000103DAB27B6883F823203B6808331B78E6
:104038001B11DBB203F00103DAB27B6883F824209A
:104048003B6808331B785B11DBB203F00103DAB27B
:104058007B6883F825203B6808331B789B11DBB20B
:1040680003F00103DAB27B6883F826203B68083343
:104078001B78DB09DAB27B6883F8262000BF0C378F
:10408800BD465DF8047B704780B485B000AF7860AA
:104098003960A523FB730AE07B685A1C7A601A789A
:1040A800FB7B5340DBB21A46074B9B5CFB733B68B8
:1040B8005A1E3A60002BEFD1FB7B18461437BD46D9
:1040C8005DF8047B704700BFD84E000880B584B007
:1040D80000AF7860396039687868FFF7D5FF034624
:1040E800FB737A683B6813441B78FA7B9A4201D1C8
:1040F800012300E0002318461037BD4680BD0000AC
:1041080080B483B000AF0346FB7197F90730002BEA
:104118000BDBFB7903F01F02074997F907305B09AE
:10412800012000FA02F241F8232000BF0C37BD46F7
:104138005DF8047B704700BF00E100E080B483B005
:1041480000AF03463960FB7197F90730002B0ADB93
:104158003B68DAB20C4997F907301201D2B20B4426
:1041680083F800230AE03B68DAB20849FB7903F0D8
:104178000F03043B1201D2B20B441A7600BF0C376E
:10418800BD465DF8047B704700E100E000ED00E00B
:1041980080B400AFBFF34F8F054BDB6803F4E062D8
:1041A8000349044B1343CB60BFF34F8F00BFFDE7B8
:1041B80000ED00E00400FA0580B500AF00F008F853
:1041C80000F0ACF8FFF766FAFFF730F900BF80BDE2
:1041D80080B586B000AF3B1D00221A605A609A6015
:1041E800DA601A61012203214848FDF705FB012224
:1041F8004FF403614648FDF7FFFA01224FF20F0121
:104208004448FDF7F9FA012203214348FDF7F4FA7F
:1042180003237B601123BB600023FB6000233B6109
:104228003B1D19463948FDF75DF94FF403637B6080
:104238001123BB600023FB6000233B613B1D194633
:104248003348FDF74FF94FF20F037B601123BB6032
:104258000023FB6000233B613B1D19462D48FDF7F9
:1042680041F903237B601123BB600023FB6000231B
:104278003B613B1D19462848FDF734F901224FF4EC
:1042880080612248FDF7B8FA4FF480637B60112300
:10429800BB600023FB6000233B613B1D19461B48A4
:1042A800FDF720F94FF4C8537B600023BB6001235E
:1042B800FB603B1D19461548FDF714F94FF476438A
:1042C8007B600023BB600123FB603B1D194610483F
:1042D800FDF708F94FF47C637B600023BB60012382
:1042E800FB603B1D19460B48FDF7FCF84FF40073C3
:1042F8007B600023BB600123FB603B1D194603481C
:10430800FDF7F0F800BF1837BD4680BD0000024039
:104318000004024000080240001C024080B58CB036
:1043280000AF07F1200300221A605A609A60DA6031
:1043380007F10C0300221A605A609A60DA601A6169
:104348000023BB606F4B5B6C6E4A43F4807353640D
:104358006C4B5B6C03F48073BB60BB6800237B60B1
:10436800684B1B6B674A43F480031363654B1B6BF5
:1043780003F480037B607B680C23FB6003233B61B1
:1043880000237B6107F10C0319465F48FDF7AAF883
:104398003023FB6003233B6100237B6107F10C039F
:1043A80019465A48FDF79EF8594B5A4A1A60584B15
:1043B80000225A60564B00229A60554B01221A611E
:1043C800534B00221A76524B002283F82020504B80
:1043D8000022DA624E4B504A9A624D4B0022DA6054
:1043E8004B4B0422DA614A4B012283F83020484BB8
:1043F80001225A614648FCF7FDF80346002B01D01C
:10440800FFF7C6FE0E233B6201237B620323BB62D8
:1044180007F1200319463E48FCF776FA0346002BBD
:1044280001D0FFF7B5FE0F233B6202237B62032313
:10443800BB6207F1200319463548FCF765FA0346C5
:10444800002B01D0FFF7A4FE02233B6203237B620B
:104458000323BB6207F1200319462D48FCF754FAE1
:104468000346002B01D0FFF793FE03233B6204238E
:104478007B620323BB6207F1200319462448FCF73B
:1044880043FA0346002B01D0FFF782FE234B244A50
:104498001A60224B00225A60204B00229A601F4B60
:1044A8000022DA601D4B4FF480621A611B4B4FF4F7
:1044B80080525A61194B4FF480429A61174B00227F
:1044C800DA61164B4FF400321A62144B00225A621A
:1044D8001248FCF7ABFD0346002B01D0FFF758FE4E
:1044E8000B4B0E4A9A630D4B094A9A6301213820F7
:1044F800FFF724FE3820FFF703FE00BF3037BD4624
:1045080080BD00BF003802400000024000080240A1
:104518003C010020002001400100000FDC000020C9
:104528001064024080B582B000AF7860786800F00F
:1045380009F9786800F01AF8786800F0B9F800F01E
:104548003DF900BF0837BD4680BD80B582B000AFD9
:104558007860786800F044F9786800F0CDF97868F8
:1045680000F03DFA00BF0837BD4680BD80B582B077
:1045780000AF78604FF400714A48FDF725F903460B
:104588001A467B681A744FF480614648FDF71CF997
:1045980003461A467B685A744FF400514148FDF7A8
:1045A80013F903461A467B689A744FF480513D48C4
:1045B800FDF70AF903461A467B68DA744FF480510E
:1045C8003948FDF701F903461A467B681A754FF416
:1045D80000613548FDF7F8F803461A467B685A75B6
:1045E8004FF480713048FDF7EFF803461A467B68B0
:1045F8009A754FF400712D48FDF7E6F803461A4600
:104608007B68DA754FF480712848FDF7DDF80346BA
:104618001A467B681A7680212448FDF7D5F80346A8
:104628001A467B685A7640212048FDF7CDF80346A4
:104638001A467B689A764FF480611C48FDF7C4F8E7
:1046480003461A467B6883F822204FF40061174816
:10465800FDF7BAF803461A467B6883F823204FF41F
:1046680000411048FDF7B0F803461A467B6883F806
:1046780024204FF480410B48FDF7A6F803461A465C
:104688007B6883F825204FF400710748FDF79CF8F4
:1046980003461A467B6883F8262000BF0837BD46C4
:1046A80080BD00BF00040240000002400008024034
:1046B80080B584B000AF7860FFF7AAF80346FB73B3
:1046C800FB7B9B11DBB203F00103DAB27B68DA767D
:1046D800FB7B5B11DBB203F00103DAB27B681A776C
:1046E800FB7B1B11DBB203F00103DAB27B685A775C
:1046F800FB7BDB10DBB203F00103DAB27B689A774D
:10470800FB7B9B10DBB203F00103DAB27B68DA773C
:10471800FB7B5B10DBB203F00103DAB27B6883F842
:104728002020FB7B03F00103DAB27B6883F82120A9
:10473800FB7BDB09DAB27B6883F8272000BF1037E0
:10474800BD4680BD80B582B000AF78607B6804222A
:1047580019460348FBF79CFF00BF0837BD4680BDDC
:104768003C01002080B584B000AF78600F4BFB603F
:104778000F4BBB60FB681B6803F01003002B02D0D3
:10478800BB6810221A60FB681B6803F02003002B2B
:1047980008D0BB6820221A60064B01221A6006481E
:1047A800FCF74AF800BF1037BD4680BD00640240E0
:1047B80008640240280000203C01002080B400AFBB
:1047C80000BF064B1B68002BFBD0044B00221A606D
:1047D80000BFBD465DF8047B704700BF280000207D
:1047E80080B582B000AF78607B681B7C1A460221D6
:1047F8003D48FDF701F87B685B7C1A4601213A4881
:10480800FCF7FAFF7B689B7C1A4604213748FCF7C3
:10481800F3FF7B68DB7C1A4608213448FCF7ECFF81
:104828007B681B7D1A4602213048FCF7E5FF7B6850
:104838005B7D1A4601212D48FCF7DEFF7B689B7DD6
:104848001A4602212A48FCF7D7FF7B68DB7D1A4607
:1048580001212748FCF7D0FF7B681B7E1A464FF4DE
:1048680000412248FCF7C8FF7B685B7E1A464FF47C
:1048780080411E48FCF7C0FF7B689B7E1A464FF4B8
:1048880000511A48FCF7B8FF7B6893F822301A46A3
:1048980020211848FCF7B0FF7B6893F823301A46AC
:1048A80010211448FCF7A8FF7B6893F824301A46B7
:1048B8004FF400610F48FCF79FFF7B6893F82530A1
:1048C8001A464FF480510948FCF796FF7B6893F825
:1048D80026301A464FF480610348FCF78DFF00BF6D
:1048E8000837BD4680BD00BF0000024000080240F6
:1048F800001C02400004024080B584B000AF78601C
:104908000023FB737B68DB7E012B01D1402200E092
:10491800002297F90F3013435BB2FB737B681B7F50
:10492800012B01D1202200E0002297F90F30134318
:104938005BB2FB737B685B7F012B01D1102200E027
:10494800002297F90F3013435BB2FB737B689B7FA0
:10495800012B01D1082200E0002297F90F30134300
:104968005BB2FB737B68DB7F012B01D1042200E083
:10497800002297F90F3013435BB2FB737B6893F8FF
:104988002030012B01D1022200E0002297F90F30DC
:1049980013435BB2FB737B6893F82130012B0CBF88
:1049A80001230023DBB25AB297F90F3013435BB2ED
:1049B800FB737B6893F82730012B02D16FF07F02DD
:1049C80000E0002297F90F3013435BB2FB73FB7BC7
:1049D8001846FEF7FFFE00BF1037BD4680BD80B504
:1049E80082B000AF78607B689B6898B27B68DB68B0
:1049F80099B27B681B689AB27B685B689BB2FEF7CA
:104A080099FD00BF0837BD4680BD000080B400AFE7
:104A1800BFF34F8F054BDB6803F4E0620349044B97
:104A28001343CB60BFF34F8F00BFFDE700ED00E0FD
:104A38000400FA0580B58AB000AF07F1140300221C
:104A48001A605A609A60DA601A6100233B612F4B42
:104A58001B6B2E4A43F0010313632C4B1B6B03F0B3
:104A680001033B613B690023FB60284B1B6B274A12
:104A780043F002031363254B1B6B03F00203FB6037
:104A8800FB680023BB60214B1B6B204A43F00403E7
:104A980013631E4B1B6B03F00403BB60BB6800234E
:104AA8007B601A4B1B6B194A43F080031363174B47
:104AB8001B6B03F080037B607B6800220421144891
:104AC800FCF79AFE04237B610123BB610023FB6191
:104AD80000233B6207F1140319460D48FCF702FD59
:104AE8000C4B0D4A1A600B4B00225A60094B782276
:104AF8009A600848FDF7F9FD0346002B01D0FFF73F
:104B080085FF00BF2837BD4680BD00BF0038024082
:104B180000040240840100200030004080B500AF4E
:104B28000248FDF71BFE00BF80BD00BF84010020C6
:104B380080B594B000AF07F11C0334220021184659
:104B480000F0AEF907F1080300221A605A609A6073
:104B5800DA601A6100237B60234B1B6C224A43F006
:104B680080531364204B1B6C03F080537B607B687D
:104B780000233B601D4B1B681C4A43F440431360F1
:104B88001A4B1B6803F440433B603B680A23FB61F4
:104B98000123BB621023FB6201233B6300237B6379
:104BA80007F11C031846FDF79DFF0346002B01D0B3
:104BB800FFF72CFF0F23BB600023FB6000233B6142
:104BC80000237B610023BB6107F10803002118461D
:104BD800FDF7D4FD0346002B01D0FFF717FF00BFF8
:104BE8005037BD4680BD00BF00380240007000400D
:104BF80080B400AF124B1B68114A43F001031360E5
:104C08000F4B00229A600E4B1B680D4A23F08473E9
:104C180023F4803313600A4B0A4A5A60084B1B6816
:104C2800074A23F480231360054B0022DA60064B01
:104C38004FF000629A6000BFBD465DF8047B704784
:104C4800003802401030002400ED00E080B584B048
:104C580000AF0346FB710023FB601848FDF77EFD9B
:104C6800FB79002B02D0012B04D007E04FF47A73B4
:104C7800FB6006E04FF4FA73FB6002E0FA23FB6086
:104C880000BFFBF7ABFC0346FA68B3FBF2F2F96826
:104C980001FB02F29A1AFB685B089A4205D20122CC
:104CA80004210748FCF7A8FD04E000220421044879
:104CB800FCF7A2FD00BF1037BD4680BD840100206F
:104CC8000004024080B500AFFBF774FCFCF7A1F9C3
:104CD80000BF80BD80B500AFFFF798FE80B500AF7C
:104CE800FFF794FE80B500AFFFF790FE80B500AFE8
:104CF800FFF78CFE80B500AFFFF788FE80B400AFE9
:104D0800BFF34F8F054BDB6803F4E0620349044BA4
:104D18001343CB60BFF34F8F00BFFDE700ED00E00A
:104D28000400FA0580B596B000AF07F128032822E1
:104D38000021184600F0B4F83B4628220021184606
:104D480000F0AEF8002387F8573000233B65FBF7E7
:104D5800D7FBFFF7EDFEFFF76DFEFFF72DFAFEF725
:104D68007DFDFFF7DBFE07F128031846FFF7DAFBA6
:104D780007F128031846FFF7E8FB0020FFF766FF56
:104D880010211F48FCF720FD0346002BEBD03A46C4
:104D980007F1280311461846FEF78AFD034687F8EF
:104DA800573007F128031846FFF7BCFB3A4607F1CE
:104DB800280311461846FEF77BFD034687F857304F
:104DC8003B6D192B02D9002387F8573097F85730D5
:104DD800012B02D0022B07D00AE03B461846FFF70A
:104DE800B4FB00233B6505E03B6D01333B6501E007
:104DF800FFF784FF97F857301846FFF727FFD0E7EB
:104E080000000240DFF834D0002103E00C4B5B586F
:104E1800435004310B480C4B42189A42F6D30B4AC4
:104E280002E0002342F8043B094B9A42F9D3FFF70A
:104E3800DFFE00F011F8FFF775FF704700800020D3
:104E480000500008000000200C0000200C0000208A
:104E5800D0010020FEE7000070B50D4E0D4CA41BDC
:104E6800A4100025A54209D10B4E0C4C00F020F8E7
:104E7800A41BA4100025A54205D170BD56F8253005
:104E880098470135EEE756F8253098470135F2E79F
:104E9800F84F0008F84F0008F84F0008FC4F0008CA
:104EA80002440346934200D1704703F8011BF9E717
:104EB800F8B500BFF8BC08BC9E467047F8B500BFFF
:084EC800F8BC08BC9E467047CF
:104ED000000610160006101600316253C4F5A6979E
:104EE000B988DBEA7D4C1F2E4372211087B6E5D4CA
:104EF000FACB98A93E0F5C6D86B7E4D542732011BA
:104F00003F0E5D6CFBCA99A8C5F4A79601306352A9
:104F10007C4D1E2FB889DAEB3D0C5F6EF9C89BAA59
:104F200084B5E6D7407122137E4F1C2DBA8BD8E989
:104F3000C7F6A59403326150BB8AD9E87F4E1D2C79
:104F400002336051C6F7A495F8C99AAB3C0D5E6F69
:104F50004170231285B4E7D67A4B1829BE8FDCED59
:104F6000C3F2A1900736655439085B6AFDCC9FAE49
:104F700080B1E2D344752617FCCD9EAF38095A6B39
:104F80004574271681B0E3D2BF8EDDEC7B4A192829
:104F900006376455C2F3A0914776251483B2E1D059
:104FA000FECF9CAD3A0B586904356657C0F1A29309
:104FB000BD8CDFEE79481B2AC1F0A39205346756F9
:104FC00078491A2BBC8DDEEF82B3E0D146772415E9
:104FD0003B0A5968FFCE9DAC0000000000000000B5
:104FE000010203040607080900000000010203048F
:084FF00048B2FF7F0100000040
:044FF800ED010008BF
:044FFC00C9010008DF
:0C50000010000000010000000024F4007B
:0400000508004E0D94
:00000001FF
